:100000000C9456070C9487070C9487070C94870769
:100010000C9487070C9487070C9487070C94870728
:100020000C9487070C9487070C9487070C94870718
:100030000C9487070C9487070C9487070C94870708
:100040000C9487070C9487070C9487070C948707F8
:100050000C9487070C9487070C9487070C948723CC
:100060000C9487070C945B240C9431240C94870720
:100070000C9487070C9487070C9487070C948707C8
:100080000C9487070C9487070C9487070C948707B8
:100090000C94FB230C94D1230C9487070C9491248B
:1000A0000C9487070C9487070C9487070C94870798
:1000B0000C9487070C9487070C9487070C94870788
:1000C0000C9487070C9487070C9487070C94870778
:1000D0000C9487070C9487070C9487070C94870768
:1000E0000C94870707634236B79BD8A71A3968561E
:1000F00018AEBAAB558C1D3CB7CC5763BD6DEDFD4A
:10010000753EF6177231BF000000803F0800000006
:10011000BE922449123EABAAAA2ABECDCCCC4C3EFC
:1001200000000080BEABAAAAAA3E00000000BF00EB
:100130000000803F0000000000084178D3BB4387E7
:10014000D1133D190E3CC3BD4282AD2B3E68EC82FB
:1001500076BED98FE1A93E4C80EFFFBE01C4FF7F80
:100160003F00000000000C94EF070C9488120C94E0
:10017000CB080C941C0B0C94F7160C9435160C94AD
:1001800056260C94D0330C948A070C94A4110C942A
:10019000C1110C9408130C94B4070C94B4130C9470
:1001A0008B070C943F260C94BF070C94B0070C945B
:1001B000650B0C94C10D0C94D3070C94CF070C94D1
:1001C000D7070C9489070C94F0160C94FB0F0C9431
:1001D000B8070C942C110C94F8080C9429090C9471
:1001E00094120C94AC0B0C94EB070C9407090C9430
:1001F000C5070C94E1070C94E5070C94C9070C940F
:1002000024170C94BC070C94CD100C94DD160C94A0
:1002100053170C94DD070C94EA070C94B8090C945E
:1002200078120C94A0120C946B090C94AA070C94ED
:100230001B090C94CE1600407A10F35A00A0724E9F
:1002400018090010A5D4E80000E87648170000E47B
:100250000B54020000CA9A3B000000E1F5050000C3
:1002600080969800000040420F000000A086010028
:100270000000102700000000E803000000006400F8
:10028000000000000A000000000001000000000063
:100290002C76D888DC674F0823DFC1DFAE59E1B187
:1002A000B796E5E3E453C63AE651997696E8E6C296
:1002B0008426EB898C9B62ED407C6FFCEFBC9C9F9D
:1002C00040F2BAA56FA5F490055A2AF75C936B6CBF
:1002D000F9676DC11BFCE0E40D47FEF520E6B500B3
:1002E000D0ED902E0300943577050080841E080021
:1002F00000204E0A000000C80C333333330F986ED1
:1003000012831141EF8D2114893BE65516CFFEE68D
:10031000DB18D1844B381BF77C1D901DA4BBE42453
:10032000203284725E228100C9F124ECA1E53D27D0
:1003300000000000003E5B4F5B3E3E6B4F6B3E1C7F
:100340003E7C3E1C183C7E3C181C577D571C1C5E96
:100350007F5E1C00183C1800FFE7C3E7FF0018246D
:100360001800FFE7DBE7FF30483A060E2629792917
:1003700026407F050507407F05253F5A3CE73C5A4C
:100380007F3E1C1C08081C1C3E7F14227F22145F29
:100390005F005F5F06097F017F006689956A606084
:1003A00060606094A2FFA29408047E040810207E7E
:1003B000201008082A1C08081C2A08081E10101003
:1003C000100C1E0C1E0C30383E3830060E3E0E0649
:1003D000000000000000005F00000007000700149C
:1003E0007F147F14242A7F2A12231308646236495B
:1003F0005620500008070300001C22410000412243
:100400001C002A1C7F1C2A08083E08080080703047
:1004100000080808080800006060002010080402B6
:100420003E5149453E00427F4000724949494621BC
:1004300041494D331814127F1027454545393C4A30
:100440004949314121110907364949493646494947
:10045000291E00001400000040340000000814228F
:1004600041141414141400412214080201590906FD
:100470003E415D594E7C1211127C7F494949363EFE
:10048000414141227F4141413E7F494949417F09E4
:100490000909013E414151737F0808087F00417FEF
:1004A00041002040413F017F081422417F404040ED
:1004B000407F021C027F7F0408107F3E4141413E85
:1004C0007F090909063E4151215E7F091929462607
:1004D0004949493203017F01033F4040403F1F200B
:1004E00040201F3F4038403F6314081463030478E2
:1004F00004036159494D43007F4141410204081002
:1005000020004141417F040201020440404040403C
:10051000000307080020545478407F2844443838AA
:1005200044444428384444287F385454541800081C
:100530007E090218A4A49C787F0804047800447DF6
:1005400040002040403D007F1028440000417F4093
:10055000007C047804787C080404783844444438E7
:10056000FC1824241818242418FC7C0804040848C7
:100570005454542404043F44243C4040207C1C2018
:1005800040201C3C4030403C44281028444C909073
:10059000907C4464544C44000836410000007700CD
:1005A00000004136080002010204023C2623263CDA
:1005B0001EA1A161123A4040207A38545455592165
:1005C000555579412254547842215554784020544D
:1005D0005579400C1E52721239555555593954549B
:1005E000545939555454580000457C410002457D0A
:1005F000420001457C407D1211127DF0282528F033
:100600007C545545002054547C547C0A097F49325F
:10061000494949323A4444443A324A4848303A41D6
:1006200041217A3A42402078009DA0A07D3D42427F
:10063000423D3D4040403D3C24FF2424487E494308
:10064000662B2FFC2F2BFF0929F620C0887E09037B
:1006500020545479410000447D413048484A3238A2
:100660004040227A007A0A0A727D0D19317D2629CE
:10067000292F28262929292630484D4020380808C6
:10068000080808080808382F10C8ACBA2F102834FA
:10069000FA00007B000008142A142222142A1408ED
:1006A0005500550055AA55AA55AAFF55FF55FF00FC
:1006B0000000FF00101010FF00141414FF001010B1
:1006C000FF00FF1010F010F0141414FC001414F7C5
:1006D00000FF0000FF00FF1414F404FC14141710B2
:1006E0001F10101F101F1414141F00101010F00002
:1006F0000000001F101010101F10101010F010003C
:100700000000FF101010101010101010FF1000004B
:1007100000FF140000FF00FF00001F10170000FC86
:1007200004F414141710171414F404F40000FF0058
:10073000F714141414141414F700F71414141714E1
:1007400010101F101F141414F4141010F010F000E7
:10075000001F101F0000001F14000000FC14000008
:10076000F010F01010FF10FF141414FF14101010EC
:100770001F00000000F010FFFFFFFFFFF0F0F0F09F
:10078000F0FFFFFF0000000000FFFF0F0F0F0F0F33
:100790003844443844FC4A4A4A347E02020606027F
:1007A0007E027E0263554941633844443C04407EE6
:1007B000201E2006027E020299A5E7A5991C2A495F
:1007C0002A1C4C7201724C304A4D4D3030487848EA
:1007D00030BC625A463D3E494949007E0101017ED6
:1007E0002A2A2A2A2A44445F444440514A44404029
:1007F000444A51400000FF0103E080FF0000080868
:100800006B6B083612362436060F090F06000018E7
:10081000180000001010003040FF0101001F01010E
:100820001E00191D1712003C3C3C3C00000000005B
:10083000000103070F1F3F7F0080C0E0F0F8FCFEBF
:10084000DB40A4A62EAF2000A1C8D300408DAED5BA
:1008500080A8000060000000000000000000000010
:10086000000000E0000000000000000000000000A8
:100870000001E00000000000000000000000000097
:1008800001F0000000000000000000000000000374
:10089000F00000000000000000000000000007F071
:1008A0000000000000000000000000000007F80049
:1008B0000000000000000000000000000FF8000031
:1008C0000003C0007E000001E0007F0FF800000080
:1008D00003C000FE000001E000FFEFF8000000038D
:1008E000C000FE000001E000FFFFF800000003C0B0
:1008F00000F00000000F007FFE7FC0000003C0007A
:10090000F00000000F003FFE7FF83FF1FBCFFCFE40
:10091000F3BC3DEFE01FFE7FFF7FFBFFDFFEFEFF2E
:10092000BC3DEFE01FC6FFFF7FFBFFDFFEFEFFBC0D
:100930003DEFE00FE3C7FE787BC3DE1EF0FFBC3D5A
:10094000EF0007FF87FC787BC3DE1EF0F83C3DEF2D
:100950000001FFFFF0007BC3C01EF0F03C3DEF0044
:1009600001F37FE03FFBC3CFFEF0F03C3DEF00031F
:10097000E33F807FFBC3DFFEF0F03C3DEF0007E785
:100980003C00787BC3DE1EF0F03C3DEF0007FFBE6D
:1009900000787BC3DE1EF0F03C3DEF0007FFFE0059
:1009A000787BC3DE1EF0F03C3DEF000FFFFE007FC2
:1009B000FBFFDFFEF0F03FFDEFE00FFFFF007FFBEE
:1009C000FFDFFEF0F03FFDEFE00FF9FF003E79F9A9
:1009D000CF9EF0F01F3DE7E01FF1FF000000000098
:1009E000000000000000001F80FF007FFFFFFFFFEE
:1009F000FFFFFFFFFFE01C007F007FFFFFFFFEB453
:100A00006D888D18E000001F007FFFFFFFFE95AD91
:100A10007DB577E000000F007FFFFFFFFEA5AD9DD5
:100A20008D19E0000006007FFFFFFFFEB5ADEDB5BC
:100A30007EE00000000000018000000000000000D7
:100A40000000038000000000000000000007C0005C
:100A5000000000000000000007C0000000000000CF
:100A60000000000FC00000000000000000001FE0B8
:100A70000000000000000000001FE0000000000077
:100A8000000000003FE00000000000000000003F08
:100A9000F00000000000000000007FF000000000F7
:100AA0000000001FF87FF0000000000000003FFE83
:100AB0007FF0000000000000003FFF7FF00000001A
:100AC000000000001FFFFBE0000000000000000F1E
:100AD000FFF9FFC00000000000000FFFF9FFF80061
:100AE000000000000007FFF1FFFF00000000000011
:100AF00003FC73FFFF80000000000001FE3FFFFFCA
:100B000080000000000000FF1E0FFF00000000003A
:100B100000007FFE1FFC000000000000003FFFFF00
:100B2000F8000000000000000FDFFFE00000000000
:100B30000000001F19FFC0000000000000003F3C43
:100B4000FF00000000000000007E7CF800000000B4
:100B5000000000007FFE7C0000000000000000FF9D
:100B6000FFFC0000000000000000FFFFFE0000008E
:100B70000000000000FFFFFE000000000000000178
:100B8000FFEFFE0000000000000001FFCFFE0000AC
:100B9000000000000003FF07FE000000000000004E
:100BA00003FC07FE0000000000000003F003FE004D
:100BB000000000000000018000FE000000000000B6
:100BC000000000007E000000000000000000003E69
:100BD000000000000000000000000C000000000009
:100BE00000078000FC000003C0000000078001FC3B
:100BF000000003C0000000078001FC000003C000EB
:100C00000000078001E00000001E000000078001D6
:100C1000E00000001E007FE3F79FF9FDE7787BDF2F
:100C2000C0FFF7FFBFFDFDFF787BDFC0FFF7FFBF11
:100C3000FDFDFF787BDFC0F0F787BC3DE1FF787BEF
:100C4000DE00F0F787BC3DE1F0787BDE0000F7873F
:100C5000803DE1E0787BDE007FF7879FFDE1E07873
:100C60007BDE00FFF787BFFDE1E0787BDE00F0F779
:100C700087BC3DE1E0787BDE00F0F787BC3DE1E03A
:100C8000787BDE00F0F787BC3DE1E0787BDE00FF9B
:100C9000F7FFBFFDE1E07FFBDFC0FFF7FFBFFDE136
:100CA000E07FFBDFC07CF3F39F3DE1E03E7BCFC004
:100CB0000000000000000000000000FFFFFFFFFF39
:100CC000FFFFFFFFFFC0FFFFFFFFFD68DB111A31D1
:100CD000C0FFFFFFFFFD2B5AFB6AEFC0FFFFFFFFC6
:100CE000FD4B5B3B1A33C0FFFFFFFFFD6B5BDB6A15
:100CF000FDC02A2A2A2A2A2A2A2A2A2A2A2A2A2AEB
:100D00002A2A2A2A2A2A2A2A2A2A2A2A2A2A2A2A43
:100D10002A2A2A2A2A2A2A002D2D2D2041524455DA
:100D2000494E4F204D4547412076312E302E302000
:100D300048415A4952202D2D2D000A2A2A2A2A2AB2
:100D40002A2A2A2A2A2A2A2A2A2A2A2A2A2A2A2A03
:100D50002A2A2A2A2A2A2A2A2A2A2A2A2A2A2A2AF3
:100D6000004F4C4544204861746121005B215D20A7
:100D700047554E43454C4C454D45204D4F4455201D
:100D8000414B5449462E0000002100240027002A30
:100D9000002D003000330001010000040107010AAA
:100DA0000100002200250028002B002E0031003415
:100DB0000002010000050108010B0100000A0B02FE
:100DC000090C0D0E080703040100000000000000DC
:100DD0000000000000000000000000000000000013
:100DE00000000000000000121110000000000000D0
:100DF00000000000000000000000000000000000F3
:100E000000000020002300260029002C002F0032C3
:100E100000000100000301060109010505050507A1
:100E20000508080808020202020A0A080804040465
:100E30000401010101010101010303030303030391
:100E400003040707070C0C0C0C0C0C0C0C02020220
:100E50000206060606060606060B0B0B0B0B0B0B13
:100E60000B010210202008081020401020408002B2
:100E700001020108040201010204081020408080E0
:100E80004020100804020180040201804020100864
:100E9000040201080402010102040810204080013C
:100EA000020408102040800056263F2611241FBE51
:100EB000CFEFD1E2DEBFCDBF00E00CBF13E0A0E07A
:100EC000B2E0EAECF2E700E00BBF02C007900D923F
:100ED000AA30B107D9F727E0AAE0B3E001C01D921C
:100EE000A331B207E1F717E0C5E5D7E000E006C09F
:100EF00021970109802FFE010E946233C435D1077A
:100F000080E00807A9F70E946D270C9453390C94D0
:100F100000000895089508958150823108F05AC064
:100F2000E82FF0E08827E856F84F8F4F0C94623393
:100F3000B807BC07AA07B007B407EA07BF07C50789
:100F4000C907CF07D307D707DD07E107EA07E5079A
:100F5000EB07EF07809180008F77809380000895E2
:100F6000809180008F7DF9CF80918000877FF5CFC1
:100F700084B58F7784BD089584B58F7DFBCF809134
:100F8000B0008F778093B00008958091B0008F7D7E
:100F9000F9CF809190008F77809390000895809191
:100FA00090008F7DF9CF80919000877FF5CF809161
:100FB000A0008F778093A00008958091A0008F7D7E
:100FC000F9CF8091A000877FF5CF809120018F77A6
:100FD000809320010895809120018F7DF9CF809129
:100FE0002001877FF5CF1F93CF93DF93282F30E029
:100FF000F901E554F24F8491F901EF59F14FD49181
:10100000F901E55EF14FC491CC23A9F0162F8111AF
:101010000E948C07EC2FF0E0EE0FFF1FEF55F24F10
:10102000A591B4918FB7F894EC91111108C0D095A7
:10103000DE23DC938FBFDF91CF911F910895DE2BCC
:10104000F8CFCF93DF9390E0FC01EF59F14F24915B
:10105000855E914FFC0184918823C9F090E0880F50
:10106000991FFC01E957F24FA591B491FC01EF558E
:10107000F24FC591D49161110DC09FB7F8948C9136
:10108000209582238C938881282328839FBFDF911A
:10109000CF910895623051F49FB7F8943C91822F1C
:1010A000809583238C93E8812E2BEFCF8FB7F89414
:1010B000EC912E2B2C938FBFEACF8230910538F024
:1010C000880F991F880F991F05970197F1F70895C9
:1010D0003FB7F8948091740490917504A0917604C0
:1010E000B091770426B5A89B05C02F3F19F0019653
:1010F000A11DB11D3FBFBA2FA92F982F8827BC0172
:10110000CD01620F711D811D911D42E0660F771F99
:10111000881F991F4A95D1F708958F929F92AF9299
:10112000BF92CF92DF92EF92FF924B015C010E943F
:1011300068086B017C010E9468086C197D098E09A2
:101140009F09683E734081059105A8F321E0821A4A
:101150009108A108B10888EEC80E83E0D81EE11CF2
:10116000F11C81149104A104B10429F7FF90EF90C0
:10117000DF90CF90BF90AF909F908F9008952FB742
:10118000F894609170047091710480917204909150
:1011900073042FBF0895AF92BF92CF92DF92EF9268
:1011A000FF920F931F93CF93DF936C017B018B0111
:1011B000040F151FEB015E01AE18BF08C017D10761
:1011C00059F06991D601ED91FC910190F081E02DEB
:1011D000C6011995892B79F7C501DF91CF911F9130
:1011E0000F91FF90EF90DF90CF90BF90AF90089558
:1011F000FC01538D448D252F30E0842F90E0821B1D
:10120000930B541710F0CF96089501970895FC01A1
:10121000918D828D981761F0A28DAE0FBF2FB11DF9
:101220005D968C91928D9F5F9F73928F90E0089551
:101230008FEF9FEF0895FC01918D828D981731F00B
:10124000828DE80FF11D858D90E008958FEF9FEF5F
:101250000895FC01918D228D892F90E0805C9F4F35
:10126000821B91098F73992708958EEE94E00E9456
:10127000290921E0892B09F420E0822F08958BE8C9
:1012800095E00E94290921E0892B09F420E0822FB2
:101290000895FC01A48DA80FB92FB11DA35ABF4F0B
:1012A0002C91848D90E001968F739927848FA68965
:1012B000B7892C93A089B1898C91837080648C93B9
:1012C000938D848D981306C00288F389E02D808168
:1012D0008F7D80830895EF92FF920F931F93CF939A
:1012E000DF93EC0181E0888F9B8D8C8D98131AC061
:1012F000E889F989808185FF15C09FB7F894EE8948
:10130000FF896083E889F9898081837080648083A4
:101310009FBF81E090E0DF91CF911F910F91FF90EF
:10132000EF900895F62E0B8D10E00F5F1F4F0F7397
:101330001127E02E8C8D8E110CC00FB607FCFACF52
:10134000E889F989808185FFF5CFCE010E9449099E
:10135000F1CFEB8DEC0FFD2FF11DE35AFF4FF08223
:101360009FB7F8940B8FEA89FB8980818062CFCF89
:10137000CF93DF93EC01888D8823B9F0AA89BB89CC
:10138000E889F9898C9185FD03C0808186FD0DC0B7
:101390000FB607FCF7CF8C9185FFF2CF808185FFD8
:1013A000EDCFCE010E944909E9CFDF91CF91089599
:1013B00080E090E0892B29F00E943F0981110E9472
:1013C000000080E090E0892B29F00E94350981110E
:1013D0000E94000080E090E0892B49F080E090E0DE
:1013E000892B29F00E94000081110E94000080E0FA
:1013F00090E0892B49F080E090E0892B29F00E9451
:10140000000081110C9400000895EF92FF920F9359
:101410001F93CF93DF93EC01EC80FD806E157F0569
:101420000CF070C057FF04C0240F351F50E040E09F
:101430008E819F81FA01E20FF31F8E179F071CF424
:101440009C01241B350B121613060CF05BC0922F67
:10145000842F8695869586958E9DD0018F9DB00DA3
:1014600011246A0F7B1FAF8DB8A1A60FB71F47705D
:1014700049F188E0841B482F682F70E0FB01E85C8D
:10148000F74FE491281708F063C0621B71092FEF32
:1014900030E002C0359527956A95E2F7E2230130E6
:1014A000110539F0B0F10230110561F58C91E82792
:1014B00002C08C91E82BEC93941720F12C813D8194
:1014C000A20FB31FE92FE41BE83078F002301105BA
:1014D00021F58E2F9C9190959C932C813D81A20F9C
:1014E000B31F88508830B0F7E770EE2359F0F0E072
:1014F000E05DF74FE49101301105F9F010F1023091
:10150000110519F1DF91CF911F910F91FF90EF908D
:101510000895E0958C91E823CECF81E00115110567
:1015200009F480E081959E2F8C932C813D81A20F40
:10153000B31F98509830C0F7D7CF8C91E82BEC931D
:10154000E1CFE0958C91E823FACF8C91E827F7CF93
:101550000130110509F4ADCFE0F20230110509F4B4
:10156000A5CFAE0DBF1DAECF0F931F93CF93DF93CB
:1015700077FF04C0260F371F70E060E0DC0114968F
:10158000CD91DC91FB01E20FF31FCE17DF071CF4B6
:101590009E01261B370B121613064CF5FA0157FD58
:1015A0003796A3E0F595E795AA95E1F7EC9FD00172
:1015B000ED9FB00DFC9FB00D11246A0F7B1FDC0165
:1015C0005F96ED91FC91E60FF71F4770552781E07C
:1015D00090E001C0880F4A95EAF7482F01301105C5
:1015E00059F0A8F02E0F3F1F02301105E1F0DF91F6
:1015F000CF911F910F9108952E0F3F1FE217F30710
:10160000B1F38191DF011197842B8C93F7CF8095F3
:101610002E0F3F1FE217F30751F39191DF0111974E
:1016200098239C93F7CFE217F30709F38191DF0129
:10163000119784278C93F7CF0F931F93FA01DC0146
:1016400056964C9156974230E9F04330A1F1413023
:1016500061F514964D915C91DA01AE1BBF0BFD0153
:10166000E21BF30B77FD0BC0DC0116964D915C91EC
:101670006417750724F4AB01BF010E94B40A1F91DF
:101680000F91089514964D915C91DA01A61BB70B4A
:10169000BD0161507109DC0116964D915C91DA0132
:1016A000AE1BBF0BFD01E21BF30B77FDE8CFAF01D3
:1016B0000E94050AE4CF16964D915C91DA01A61BB3
:1016C000B70BBD0161507109CDCF0F931F93FA0184
:1016D000DC0156964C9156974230A9F0433091F177
:1016E000413019F514964D915C91DA01AE1BBF0B98
:1016F000FD013197F7FD04C0AB01BF010E94050A4F
:101700001F910F91089514964D915C91DA01A61BDB
:10171000B70BBD01DC0116964D915C91DA01AE1B51
:10172000BF0BFD013197621B730BF7FDE9CFDC01A5
:1017300016964D915C91E417F50714F7AF010E94DE
:10174000B40ADECF16964D915C91DA01A61BB70B59
:10175000BD01621B730BCECFFC0177FD64C0808599
:101760009185681779070CF05EC057FD5CC08285D3
:101770009385481759070CF056C086898230B1F01E
:10178000833029F1813041F484819581841B950B4C
:10179000AB01BC01615071092130310509F108F438
:1017A00043C02230310509F463C0089584819581D6
:1017B000DC01A61BB70BBD016150710986819781C1
:1017C000DC01A41BB50BAD0141505109E5CF868169
:1017D0009781861B970BBA01AC0141505109DCCFB0
:1017E000CA0157FD0796A3E095958795AA95E1F75D
:1017F000A481B5818A9F90018B9F300D9A9F300DF7
:101800001124620F731F078CF0A1E02DE60FF71F64
:101810004770552721E030E001C0220F4A95EAF7D2
:101820008081822B80830895CA0157FD079633E09B
:10183000959587953A95E1F7A481B5818A9F9001A6
:101840008B9F300D9A9F300D1124620F731F078CF0
:10185000F0A1E02DE60FF71F4770552781E090E0DB
:1018600001C0880F4A95EAF7809590818923DACFE5
:10187000CA0157FD079623E0959587952A95E1F7CC
:10188000A481B5818A9F90018B9F300D9A9F300D66
:101890001124620F731F078CF0A1E02DE60FF71FD4
:1018A0004770552721E030E001C0220F4A95EAF742
:1018B00080818227B7CFCF93CFB7F894809152031E
:1018C000811127C0E0E5FEE08491E6E9FEE0949115
:1018D000E82FF0E0EE0FFF1FE957F24FA591B4910A
:1018E000EC91E92321F461E085E30E94F30761E0D4
:1018F00085E30E9421088CB580618CBD8CB5806425
:101900008CBD61E084E30E94210861E083E30E94D2
:101910002108809152038F5F80935203CFBFCF91F4
:101920000895BF92CF92DF92EF92FF920F931F9391
:10193000CF93DF93EC0188819981892B81F06EBD73
:101940000DB407FEFDCF0EB5802FDF91CF911F9113
:101950000F91FF90EF90DF90CF90BF900895888512
:10196000998511E0892B09F010E8BB24B394862FE8
:10197000812309F0B12CF62E2C813D814E815F81AF
:1019800060E271EA87E090E00E942E30E22E00E0F3
:10199000C22ED12CEE2019F0C6010E945D088A8566
:1019A000982F977F09F044C08D858F3F89F09F2D38
:1019B000912381E009F480E08B1551F0EF85F889DF
:1019C0008F89992379F19081892B8083BB24B394EB
:1019D000E989FA898081998D892B8083EE2019F01D
:1019E000C6010E945D088E858F3F39F0EB89FC8926
:1019F0008081988D892309F0012BE989FA899081EA
:101A0000898D80958923808388859985892B09F024
:101A100067C0110F1111BECF8E858F3F09F094CF93
:101A20000F2D92CF9081809589238083B12CD0CFC8
:101A30008C3099F58D858F3F49F0EF85F8898F8936
:101A40009F2D912331F19081892B8083E989FA8937
:101A50009081898D809589238083EE2019F0C601BD
:101A60000E945D08E989FA898081998D892B80839C
:101A7000EE2019F0C6010E945D088E858F3F21F28D
:101A8000EB89FC898081988D892309F4BDCF012BD6
:101A9000BBCF908180958923D8CFE989FA8980814D
:101AA000998D892B8083EE2019F0C6010E945D0874
:101AB0008D858F3F49F0EF85F8898F899F2D912380
:101AC00059F09081892B8083E989FA899081898DE9
:101AD000809589238083D1CF908180958923F3CF0E
:101AE000169598CF0895FC0183858F3F19F061E02A
:101AF0000C94F30708958CBD9DBD0895CF93DF939B
:101B0000EC0188819981892B31F0EA81FB81808108
:101B100091810E947B0D8B858F3F29F060E0DF91E2
:101B2000CF910C94F307DF91CF910895CF92DF927C
:101B3000EF92FF920F931F93CF93DF938C01EB01F2
:101B40006A0179010E947E0D6881C8010E94910C92
:101B5000E601EC0CFD1C6FEFC8010E94910C89930B
:101B6000CE15DF05C1F7C8010E94730D81E0DF913A
:101B7000CF911F910F91FF90EF90DF90CF9008953C
:101B80000895FC016370668B84819581268137817D
:101B9000613039F0633029F091878087338722875D
:101BA0000895318720879387828708952F923F92E7
:101BB0004F925F926F927F928F929F92AF92BF925D
:101BC000CF92DF92EF92FF920F931F93CF93DF9309
:101BD000CDB7DEB76A970FB6F894DEBF0FBECDBFA4
:101BE0009A8F898F7A8369834A01D22E18870F834F
:101BF0003701BC2CDC0159962D913C915A97211547
:101C0000310509F015C118968D919C9119976817A7
:101C100079070CF0D7C11A968D919C9148175907F6
:101C20000CF0D0C14C2C512CB6E0CB9E600D711D38
:101C300011247C876B87161617060CF0C3C1EA2D9A
:101C4000F0E0FA87E98793E0EE0FFF1F9A95E1F73E
:101C5000F88BEF87CF01840F951F181619060CF02B
:101C6000B1C1A98DBA8D58968C91811104C0BFEA7B
:101C7000BD1508F4D394A98DBA8DED91FC911197FF
:101C80000284F385E02DCD011995B5E0DB9EC001FE
:101C90001124E981FA81FC83EB83312C212C9C01F6
:101CA000205D3C4F388F2F8B4A2D50E05E8B4D8B43
:101CB000EF89F88DE20DF31D44919E828D82D12C27
:101CC000C12C69817A81620D731D7A8B698B842F97
:101CD00090E09C8B8B8BE98DFA8DA081B18140FFC8
:101CE00082C0F1E0BF126FC0AF126DC01C96ED91C3
:101CF000FC912F813885A4014C0D5D1D69897A897D
:101D0000898D9A8D1995EB89FC89F595E7954E2F6C
:101D10005FEFC51AD50A6D817E818D899E89680F16
:101D2000791F7E836D8398E0C916D10481F6AFEFE9
:101D30002A1A3A0AEB81FC81E40DF51DFC83EB8342
:101D4000F5E02F16310409F0B3CF2F813885261521
:101D50003705B9F0A98DBA8DED91FC91B1E0BB12B8
:101D600057C0AB1255C069817A816B5F7F4F008885
:101D7000F189E02D830128E030E0A401898D9A8D5E
:101D80001995A98DBA8DED91FC9111970688F78967
:101D9000E02DCD016A960FB6F894DEBF0FBECDBF21
:101DA000DF91CF911F910F91FF90EF90DF90CF9037
:101DB000BF90AF909F908F907F906F905F904F906B
:101DC0003F902F9019941E96ED91FC91EF80F8842E
:101DD00009851A8592014D815E816B817C81898D97
:101DE0009A8D199590CF2F8138852615370509F4DE
:101DF0008ACF31E0B31207C0A31205C01C96ED9143
:101E0000FC91930178CF1E96ED91FC917301E0CF88
:101E10006B857C85641975090684F785E02D73014F
:101E20000F8518899201A401898D9A8D1995A9CFE2
:101E3000F90134969491329745915491D91AB7E0AB
:101E4000DB9E400D511D1124F901259134913C8BED
:101E50002B8BFA0125903490FA01329674903196CA
:101E60003491398B329664903196449041E04C1510
:101E700018F04A1508F07FC0662D062C000C770B71
:101E80007C836B83842D042C000C990B9E838D83A3
:101E9000A98DBA8DED91FC9111970284F385E02D07
:101EA000CD011995512CD12CC12CEA2DF0E0FA87E7
:101EB000E9872B2D30E03C872B87A401440D511D71
:101EC00047FC5A95588F4F8B69817A81660D711D39
:101ED00067FC7A957E876D877989C71608F051CFA0
:101EE0002C2D30E04D815E81420F531FA985BA85AC
:101EF0004A9FC0014B9F900D5A9F900D1124FC01E9
:101F0000E80DF91DF88BEF87852D612C4F89588DD1
:101F1000420F531F5E8B4D8B671408F050C0442452
:101F20004394480E877041F4C1010196EB89FC8906
:101F3000E20DF31DD4901C01D7FE19C0A98DBA8DF6
:101F4000ED91FC91662D70E0B1E0BB1219C0AB12AF
:101F500017C02D853E85620F731F0484F585E02D23
:101F60002F8138854D895E89898D9A8D1995DD0C73
:101F70006394842DD1CF1E821D821C821B8288CF48
:101F80004B815C81640F751FAB85BC856A9FC00166
:101F90006B9F900D7A9F900D112469817A81680F53
:101FA000791F0684F785E02DEF80F88409851A856E
:101FB0009D014F855889898D9A8D1995D8CF570CD9
:101FC000C3948ACF6A960FB6F894DEBF0FBECDBF1A
:101FD000DF91CF911F910F91FF90EF90DF90CF9005
:101FE000BF90AF909F908F907F906F905F904F9039
:101FF0003F902F9008958F929F92AF92CF92EF9241
:10200000FF920F931F93CF93DF93EC01262F898DBF
:102010009A8D009709F051C06A30D1F41D861C8654
:102020008D8948E0849F900111248E859F85820FC1
:10203000931F9F878E8781E090E0DF91CF911F9162
:102040000F91FF90EF90CF90AF909F908F90089559
:102050006D3089F3CC88AD888F898823C1F08C8559
:102060009D8536E0C39E800D911D112448855985BC
:102070004817590764F44E855F851D861C8638E035
:10208000A39EC0011124840F951F9F878E87EA8825
:10209000FB88088919894E855F856C857D85CE0111
:1020A0000E94D60D2C898C859D8546E0249F800D4D
:1020B000911D11249D878C87BECF6A3069F41D86DF
:1020C0001C86FC013896E4912D898E859F85E29FC0
:1020D000800D911D1124ADCF6D3009F4ACCFFC0102
:1020E00034963491631708F4A6CF3296E491E6173C
:1020F00008F4A1CFFC01329685909490462F431BA3
:10210000342F47E0349F800C911C1124F401329647
:1021100034913196E4913323A9F1EE2399F1CC88DF
:10212000F4013596E491AD884F89442301F10E2ED8
:10213000000CFF0BE30FF11DCE9EA001CF9E500DB2
:1021400011246C857D85460F571F68857985641736
:1021500075076CF44E855F851D861C86FC013896DC
:10216000E491AE9E400D511D11245F874E87EA8891
:10217000FB88088919894E855F856C857D85CE0130
:102180000E94D60DF4013496E4912C898C859D85AE
:10219000E29F800D911D11248DCF6F927F928F92BF
:1021A0009F92AF92BF92CF92DF92EF92FF920F93E6
:1021B0001F93CF93DF93EC016B015A013901480162
:1021C000E881F9810284F385E02D1995E881F98190
:1021D0000288F389E02D87019301A501B601CE01A4
:1021E0001995A501480D591D41505109E881F98102
:1021F0000288F389E02D9301B601CE011995E8819B
:10220000F9810088F189E02D9401A501B601CE0184
:102210001995C60CD71CB60161507109E881F98186
:102220000088F189E02D9401A501CE011995E8817E
:10223000F9810688F789E02DCE01DF91CF911F91BA
:102240000F91FF90EF90DF90CF90BF90AF909F9055
:102250008F907F906F9019946F927F928F929F9240
:10226000AF92BF92CF92DF92EF92FF920F931F93A4
:10227000CF93DF935C01EB016A01490138018701CB
:10228000DC01ED91FC916217730719F56416750670
:102290002CF0962D872D3A01C92ED82E960126199D
:1022A00037092F5F3F4F048CF58DE02DA301BE0150
:1022B000C5011995DF91CF911F910F91FF90EF907C
:1022C000DF90CF90BF90AF909F908F907F906F9056
:1022D00008954615570591F42617370724F0892DE0
:1022E0004B01C22FD82F9E01281939092F5F3F4F6C
:1022F000068CF78DE02DA601B401DACF0284F385B8
:10230000E02D1995D501ED91FC910488F589E02D1A
:1023100083019401A601BE01C5011995D501ED9176
:10232000FC910688F789E02DC501DF91CF911F91BF
:102330000F91FF90EF90DF90CF90BF90AF909F9064
:102340008F907F906F901994EF92FF920F931F934D
:10235000DC011A960D911C911B9718962D913C91BA
:102360001997ED91FC9100A0F1A1E02D7B0150E0C7
:1023700040E070E060E019951F910F91FF90EF90A1
:1023800008954F925F926F927F928F929F92AF9239
:10239000BF92CF92DF92EF92FF920F931F93CF9352
:1023A000DF936C012B015A0139014801DC01ED91E9
:1023B000FC910284F385E02D1995E201640C751CF3
:1023C000D601ED91FC91C615D7055CF40088F18922
:1023D000E02D87019401A501BE01C6011995219642
:1023E000EFCF0688F789E02DC601DF91CF911F91CD
:1023F0000F91FF90EF90DF90CF90BF90AF909F90A4
:102400008F907F906F905F904F9019948F929F92D2
:10241000AF92BF92CF92DF92EF92FF920F931F93F2
:10242000CF93DF93EC015B014A016901E881F981F7
:102430000284F385E02D199595012C0D3D1D215049
:102440003109E881F9810488F589E02D780184015A
:10245000A401B501CE011995E881F9810688F789B3
:10246000E02DCE01DF91CF911F910F91FF90EF9062
:10247000DF90CF90BF90AF909F908F9019948F92E4
:102480009F92AF92BF92CF92DF92EF92FF920F9303
:102490001F93CF93DF93EC015B014A01690178013F
:1024A000E881F9810284F385E02D1995C80CD91CC7
:1024B000860101501109E881F9810488F589E02D30
:1024C0009501A401B501CE011995E881F98106882D
:1024D000F789E02DCE01DF91CF911F910F91FF90F1
:1024E000EF90DF90CF90BF90AF909F908F90199416
:1024F000EF92FF920F931F93DC01ED91FC9100A0EE
:10250000F1A1E02D19951F910F91FF90EF90089583
:102510000F931F93DC01ED91FC91068CF78DE02D5C
:1025200019951F910F9108950F931F93DC01ED9161
:10253000FC91048CF58DE02D19951F910F91089554
:10254000DC01ED91FC910084F185E02D19943F921E
:102550004F925F926F927F928F929F92AF92BF92B3
:10256000CF92DF92EF92FF920F931F93CF93DF935F
:102570005C017B014A016901390187E0680E711C29
:1025800093E0759467949A95E1F72B01400E511EE4
:1025900010E000E0312CD0E0C0E0CE018770992738
:1025A000330C892B59F4FE0183E0F595E7958A9564
:1025B000E1F7E00FF11FE80DF91D349037FE0AC076
:1025C00021E030E0A701B5016C0F7D1F8FEC96E094
:1025D0000E94A0122196CC16DD06F9F68FEFE81ABC
:1025E000F80A060D171DE414F504A9F6DF91CF9142
:1025F0001F910F91FF90EF90DF90CF90BF90AF9021
:102600009F908F907F906F905F904F903F90089534
:102610002F923F924F925F926F927F928F929F92F2
:10262000AF92BF92CF92DF92EF92FF920F931F93E0
:10263000CF93DF9300D000D0CDB7DEB73C016A0165
:102640003E832D83FC82EB825801A41AB50AB7FEA3
:1026500003C0B194A194B1088D809E80861A970A18
:1026600097FE03C09194819491088A149B045CF0B6
:10267000902F812F0D811E819D838E839C2D8D2D0A
:102680006B01692F782F0C151D055CF09D818E81E3
:102690007E836D83692F782F902F812F8601C92E1D
:1026A000D82E1601201A310A2B012D813E81421AA3
:1026B000530A57FE03C0519441945108710137FEEB
:1026C00003C03FEFE31AF30AF594E7948D819E81EE
:1026D000861797075CF5A1E0B0E0BA83A983C0161E
:1026E000D1064CF1D301ED91FC910484F585E02DE8
:1026F0002B813C81A8016D817E818A149B041CF092
:102700004D815E81B801C3011995E418F508F7FE03
:102710000AC02D813E8189819A81280F391F3E830D
:102720002D83E20CF31C0F5F1F4FD9CF2FEF3FEF2C
:102730003A832983D4CF26960FB6F894DEBF0FBE16
:10274000CDBFDF91CF911F910F91FF90EF90DF9060
:10275000CF90BF90AF909F908F907F906F905F9041
:102760004F903F902F900895089520912F03260FAA
:102770003327331F21323105ECF42091C404FC01CE
:1027800090E080E0243069F082E00895A0912F036A
:102790002191AC01415F5C4FA40FB52FB11D2C936B
:1027A0000196861798F380912F03680F60932F038B
:1027B00080E0089581E008951092C40481E0809340
:1027C000C30410929E0461E084E10E94F30761E07B
:1027D00085E10E94F307E9EBF0E080818E7F808342
:1027E00080818D7F808388E48093B80085E4809326
:1027F000BC00089510927D0410927C041092CB04CA
:102800001092ED040E94DC1389E897E090937B041A
:1028100080937A048AE897E090937904809378040F
:102820000895CF93DF9391E090930E038823B9F03E
:10283000C091B800D091BA008091BC008A7B80938F
:10284000BC0060E084E10E94F30760E085E10E9443
:10285000F3070E94DC13D093BA00C093B800DF9155
:10286000CF9108958F929F92AF92BF92CF92DF92B5
:10287000EF92FF920F931F93CF93DF93D091ED04CC
:10288000D13208F0D7C0182FC091EC040E9468081C
:102890006B017C018091C40481116BC082E0809344
:1028A000C4041093C3048FEF8093C2041092C10438
:1028B000D093C004ACECB4E0E0EAF4E080E0D813DC
:1028C00091C010929F0480919F04CC0FC82BC0939D
:1028D0009F0480919E04813009F088C010929E046C
:1028E0000E9468086B017C0180919F048093BB006B
:1028F0008091C6049091C704A091C804B091C90406
:10290000892B8A2B8B2BA1F00E9468080091C604AA
:102910001091C7042091C8043091C9046C197D0935
:102920008E099F09061717072807390708F442C0C0
:102930008091BC0083FDD8CF85EC8093BC000E94C1
:1029400068086B017C018091C404823009F450C096
:102950008091C2048F3F09F46FC08091C20480321D
:1029600009F46CC08091C204803309F469C084E02A
:1029700026C08091C6049091C704A091C804B0916C
:10298000C904892B8A2B8B2B09F484CF0E946808F9
:102990008090C6049090C704A090C804B090C90469
:1029A0006C197D098E099F0986169706A806B90637
:1029B00008F070CF8091C5040E94111485E0109238
:1029C000CB041092ED041092CA04DF91CF911F91B5
:1029D0000F91FF90EF90DF90CF90BF90AF909F90BE
:1029E0008F9008959D9191938F5F69CF85EEA5CFCC
:1029F0008091C6049091C704A091C804B091C90405
:102A0000892B8A2B8B2B09F49ECF0E94680800919A
:102A1000C6041091C7042091C8043091C9046C19F0
:102A20007D098E099F09061717072807390708F03F
:102A30008ACFC0CF81E0C3CF80E0C1CF82E0BFCFDB
:102A400083E0BDCFEF92FF920F931F93CF937C0152
:102A5000C62F8091EC069091ED06009709F455C0C1
:102A60002091F00631E03093CA042093EC041092D8
:102A7000CB041092ED04DC01ED91FC910190F0810A
:102A8000E02D60E019958701EE24E394F12CC1500C
:102A9000A0F1B0E2EB16F104E8F081E00E943214FC
:102AA0008091EC069091ED062091F00631E0309394
:102AB000CA042093EC041092CB041092ED04DC01C4
:102AC000ED91FC910190F081E02D60E01995EE24EC
:102AD000E394F12C8091EC069091ED06F80164915D
:102AE000DC01ED91FC910190F081E02D1995BFEF93
:102AF000EB1AFB0A0F5F1F4FCACF81E0CF911F91E6
:102B00000F91FF90EF900C943214E091FC06F0913D
:102B1000FD06908180910207809589238083F701CB
:102B2000C15008F43AC044918091EA069091EB06B6
:102B3000892B41F04EBD00000DB407FEFDCF8EB5D0
:102B40003196EECF28E030E090E8A091F806B09101
:102B5000F90680910007542F5923D9F05C91852BF9
:102B60008C93A091FA06B091FB068C9150910107CD
:102B7000852B8C93A091FA06B091FB065C91809115
:102B80000107809585238C93969521503109E9F6AC
:102B9000D7CF5C9180958523E3CFCF911F910F9183
:102BA000FF90EF9008951F93CF93DF93EC018D8DED
:102BB0009E8D009719F1162F29A131E03093CA0498
:102BC0002093EC041092CB041092ED04DC01ED9103
:102BD000FC910190F081E02D60E019958D8D9E8D26
:102BE000DC01ED91FC910190F081E02D612F1995B0
:102BF00081E0DF91CF911F910C943214ADA5BEA559
:102C00009C918BA9809589238C938B8D9C8D892B8E
:102C100051F06EBD00000DB407FEFDCF8EB5DF9103
:102C2000CF911F91089528E030E090E8A9A5BAA5BA
:102C300089A9462F4923A9F04C91842B8C93ABA5ED
:102C4000BCA58C914AA9842B8C93ABA5BCA54C91B7
:102C50008AA9809584238C9396952150310931F768
:102C6000DECF4C9180958423E9CF1F93CF93DF93E0
:102C7000EC01162F8D8D9E8D892BB1F12DA93EA9CA
:102C80004FA958AD60E074E284EF90E00E942E30CE
:102C90002051310941095109569547953795279596
:102CA0002093B80066EA111167EACE010E94D3159D
:102CB0008D8D9E8D892B41F129AD3AAD4BAD5CAD2B
:102CC00060E074E284EF90E00E942E3020513109E0
:102CD0004109510956954795379527952093B80096
:102CE000DF91CF911F9108958B8D9C8D892B21F0C1
:102CF0008EAD9FAD0E947B0DEFA5F8A990818CA9A8
:102D0000809589238083CECFEFA5F8A980819CA9E7
:102D1000892B8083E5CF1F93CF93DF93EA01122F96
:102D2000DC0111968D919C91DC01ED91FC9102806A
:102D3000F381E02D1995C817D90729F4812F0E9436
:102D4000321491E0811190E0892FDF91CF911F9192
:102D50000895CF93DF93EC018B818823A1F08881C4
:102D600091E09093CA048093EC041092CB041092EB
:102D7000ED0481E00E94321491E0811190E0892FEE
:102D8000DF91CF9108950E94FA1381E08B83CE01E9
:102D90000E94A916982F8111E2CFF1CFE0917D0416
:102DA00080917C04E81730F4F0E0E258FB4F80811A
:102DB00090E008958FEF9FEF089590917D048091AA
:102DC0007C042FEF3FEF981748F4E92FF0E0E2582A
:102DD000FB4F208130E09F5F90937D04C9010895EF
:102DE00080917C0490917D04891B990B0895CF926A
:102DF000DF92EF92FF920F931F93CF93DF937C01AB
:102E0000CB018A012091CA04222389F0EB016B01D6
:102E1000C40ED51ECC15DD0569F06991D701ED9181
:102E2000FC910190F081E02DC7011995F3CF642F3B
:102E30000E94B513C801DF91CF911F910F91FF90B0
:102E4000EF90DF90CF900895CF93DF931F92CDB78F
:102E5000DEB769832091CA042223F9F02091ED04A2
:102E6000203258F021E030E0FC013383228390E0EF
:102E700080E00F90DF91CF9108958091CB04E82FEF
:102E8000F0E0E453FB4F998190838F5F8093CB04F4
:102E90008093ED0481E090E0ECCF61E0CE010196FB
:102EA0000E94B513F7CF90E080E008950F931F9331
:102EB000CF93DF931F921F92CDB7DEB74A83DC0119
:102EC000ED91FC913097F9F06983848195810297A7
:102ED00098F0808191E09093CA048093EC04109262
:102EE000CB041092ED0421E042E050E0BE016F5FA0
:102EF0007F4FCF010E948B160F900F90DF91CF91E3
:102F00001F910F9108956F776983FC0102811381EE
:102F1000C8010E947E0D6981C8010E94910C6A81DE
:102F2000C8010E94910CC8010E94730DE5CF2F9239
:102F30003F924F925F926F927F928F929F92AF9249
:102F4000BF92CF92DF92EF92FF920F931F93CF9396
:102F5000DF93DC011496ED91FC911597EF2B09F4AA
:102F600025C169012A01EC01888191E09093CA048E
:102F70008093EC041092CB041092ED0420E041E029
:102F800050E0CD010E948B16782E882309F40EC1E3
:102F9000F12CE12C332433948C819D8186010E1910
:102FA0001F098017910708F48C0128800E94680887
:102FB0004B015C018091C404811173C0602EB0E2AA
:102FC000B01710F480E2682E3092C40421E0C601EC
:102FD000801B910BE816F90608F420E02093C30447
:102FE000EFEFE093C2041092C1048FEF860D80933F
:102FF000C00430929F0480919F04220C282A2092C2
:103000009F0480919E04813009F090C010929E042C
:103010000E9468084B015C0180919F048093BB0073
:103020008091C6049091C704A091C804B091C904CE
:10303000892B8A2B8B2BA1F00E9468082091C60453
:103040003091C7044091C8045091C90468197909A6
:103050008A099B09261737074807590708F442C011
:103060008091BC0083FDD8CFF5ECF093BC000E94AA
:1030700068084B015C018091C404813009F45AC096
:103080008091C104861510F46090C104A0EAB4E0F8
:10309000EEE7F4E080E0861551F19D9191938F5F0A
:1030A000FACF8091C6049091C704A091C804B09152
:1030B000C904892B8A2B8B2B09F47CCF0E946808CA
:1030C0002091C6043091C7044091C8045091C904AE
:1030D000681979098A099B0926173707480759078C
:1030E00008F068CF8091C5040E941114612C1092E1
:1030F0007D0460927C046016110609F057C04201FD
:103100008E0C9F1C5401C5018819990980179107DD
:1031100098F589819A81DC01ED91FC910284F38517
:10312000E02D1995F50181935F01EDCF85EE809338
:10313000BC009DCF8091C6049091C704A091C804A3
:10314000B091C904892B8A2B8B2B09F494CF0E9450
:1031500068082091C6043091C7044091C80450917A
:10316000C904681979098A099B092617370748078E
:10317000590708F080CFB6CFE00EF11EEC14FD0425
:1031800008F40ACF872DDF91CF911F910F91FF9007
:10319000EF90DF90CF90BF90AF909F908F907F90F7
:1031A0006F905F904F903F902F900895712CEACFD1
:1031B000CF93DF9300D0CDB7DEB7E0918806F091D2
:1031C0008906898323E030E0AE014F5F5F4FBA018B
:1031D0003097A9F0CF010E94971729816A8170E08A
:1031E00090E080E0982F872F762F6627822B2B8107
:1031F000622B0F900F900F90DF91CF9108958091E7
:103200008A0690918B060E94960DE7CF4F925F92AF
:103210006F927F928F929F92AF92BF92CF92DF92E6
:10322000EF92FF928091C106877009F49EC08AEFE9
:103230000E94D8182B013C0184E075946794579440
:1032400047948A95D1F7C0909F06D090A006C301FD
:10325000B20128E030E040E050E00E94FC2FF12C69
:10326000E12CD701C601880F991FAA1FBB1F281B7D
:10327000390B4A0B5B0BA091A106B091A2060E94EC
:1032800026304B015C01C301B20120E130E040E097
:1032900050E00E94FC2FCA01B9016C197D098E090A
:1032A0009F099B01AC010E9452339B01AC017CE061
:1032B00055954795379527957A95D1F7A091A3060F
:1032C000B091A4060E9426302B013C01C501B40137
:1032D00020E038E040E050E00E94FC2F69017A01D4
:1032E000C301B20120E030E440E050E00E94FC2F36
:1032F0002C0D3D1D4E1D5F1D80919B0690919C06DF
:10330000A0919D06B0919E06280F391F4A1F5B1F92
:1033100020939706309398064093990650939A0607
:10332000A5E0B0E00E941B3060587F4F8F4F9F4F49
:1033300020E031E040E050E00E94FC2FCA01B901DA
:103340000E94DF2E20E030E048EC52E40E94CC30B6
:10335000FF90EF90DF90CF90BF90AF909F908F90B5
:103360007F906F905F904F90089560E070E080ECE8
:103370009FE7EECFCF93DF931F921F92CDB7DEB7BB
:10338000FC0180819181698322E030E0AE014F5FD2
:103390005F4FBA01009761F00E94971789819A8167
:1033A0009827892798270F900F90DF91CF91089544
:1033B000828193810E94960DF1CF0E94BA199827BD
:1033C000892798270895CF93DF931F92CDB7DEB753
:1033D000FC0180819181698321E030E0AE014F5F83
:1033E0005F4FBA01009739F00E94971789810F90BB
:1033F000DF91CF910895828193810E94960DF6CF3F
:10340000FF920F931F93CF93DF93EC01F62E0A8167
:103410001B810115110549F588819981009711F0EB
:103420000E94893586E090E00E94ED348C01FC0119
:10343000F08283EC96E092838183138280E290E0B5
:1034400095838483198308830E94FA1381E0F8012D
:103450008383C8010E94A91681111EC080E0DF91FC
:10346000CF911F910F91FF900895F80183858F3FB1
:1034700041F061E00E94210861E0F80183850E942B
:10348000F307F80180819181892B09F4FDC00E9426
:103490005B0C81E0F801838F60EDCE010E94E3199F
:1034A00090E0B0E0A0E08B879C87AD87BE87803638
:1034B0009105A105B10591F646EB60EECE010E94A3
:1034C00056176AE070E080E090E00E948D0863EF9C
:1034D000CE010E94E31980FDF4CF68E8CE010E947E
:1034E000DD19988F8F8B6AE8CE010E94DD199A8FC3
:1034F000898F6CE8CE010E94DD199C8F8B8F6EE85E
:10350000CE010E94DD199E8F8D8F60E9CE010E9451
:10351000DD1998A38F8F62E9CE010E94DD199AA36D
:1035200089A364E9CE010E94DD199CA38BA366E9FF
:10353000CE010E94DD199EA38DA368E9CE010E94F1
:10354000DD1998A78FA36AE9CE010E94DD199AA719
:1035500089A76CE9CE010E94DD199CA78BA76EE9B3
:10356000CE010E94DD199EA78DA761EACE010E94BF
:10357000E3198FA761EECE010E94DD1999AB88ABEC
:1035800063EECE010E94E3198AAB64EECE010E9485
:10359000E319182F65EECE010E94E319F0E11F0236
:1035A000900111248F70282B3CAB2BAB66EECE0123
:1035B0000E94E319182F65EECE010E94E31990E1F5
:1035C00019029001112490E044E0959587954A9561
:1035D000E1F7822B932B9EAB8DAB67EECE010E9461
:1035E000E3198FAB8DEE89AF8AAD8F71806A8AAF98
:1035F00088AD807C8F7788AF40E064EFCE010E9479
:1036000056174AAD42954695477062EFCE010E942B
:10361000561788AD482F4770E0E24E9FA001112455
:10362000282F2695269526952770F4E02F9F900148
:103630001124422B87FB882780F9482B65EFCE01A8
:103640000E94561789AD482F477090E2499FA0010C
:103650001124282F2695269526952770E4E02E9F85
:1036600090011124422B8295869586958370482B74
:1036700064EFCE010E94561764E670E080E090E0AF
:103680000E948D0881E0EBCE61E084850E942108D4
:10369000F80182858B7F60E009F061E084850E94FB
:1036A000F307F80185858F3F41F061E00E94210812
:1036B00061E0F80185850E94F307F80186858F3F58
:1036C00009F4E7CE60E00E942108E3CE0E941236A2
:1036D00042E050E066E572E00C94CB080F931F9334
:1036E000CF93DF938C01D0E0C0E0F801EC0FFD1F19
:1036F0006491662341F08BE895E00E946B09892B69
:1037000011F02196F2CF8BE895E00E94681B8C0F98
:103710009D1FDF91CF911F910F91089585ED8093AB
:10372000BC008091C6049091C704A091C804B091D8
:10373000C9040796A11DB11D23E0B695A7959795DD
:1037400087952A95D1F72091BC0024FD03C01092E3
:10375000C40408954091C6045091C7046091C80400
:103760007091C904452B462B472B69F30097A1059F
:10377000B10541F02AE22A95F1F700C00197A109AD
:10378000B109E1CF8091C5040C941114EF92FF921E
:103790000F931F93CF93DF93CDB7DEB7C350D140C4
:1037A0000FB6F894DEBF0FBECDBFF82EE92EA82FBE
:1037B000B92FFD0101900020E9F73197EA1BFB0BBF
:1037C000EA0FFB1F80E0EA17FB0719F09D9189279C
:1037D000FACF1F928F9389E592E09F938F938E018A
:1037E0000F5F1E4F1F930F930E947D361F930F9301
:1037F000EF92FF928EE592E09F938F9381E08F93FB
:103800001F921A951F930F930E944036F801019062
:103810000020E9F73197AF01401B510BB8018EEE44
:1038200094E00E94CB088EEE94E00E94681B8EEE1E
:1038300094E00E94B8090FB6F894DEBF0FBECDBF6A
:10384000CD5FDE4F0FB6F894DEBF0FBECDBFDF9168
:10385000CF911F910F91FF90EF9008952F923F927B
:103860004F925F926F927F928F929F92AF92BF9290
:10387000CF92DF92EF92FF920F931F93CF93DF933C
:10388000CDB7DEB7C653D1400FB6F894DEBF0FBE3A
:10389000CDBF60E08EE10E94F30783E090E00197E6
:1038A000F1F761E08EE10E94F30783E290E0019777
:1038B000F1F760E08EE10E94F307E3E6FEE0649139
:1038C000EDE1FEE0E491F0E0EE0FFF1FEF5FF14F5E
:1038D0008591949100E315E720E030E0462F0E94A7
:1038E000B525611571058105910529F06F5F7F4F41
:1038F0008F4F9F4F9F700E94DF2E26E933E44BE0ED
:103900005DE30E943E2F20E030E040E05FE30E9454
:103910003E2F6B017C0120E030E040E050E40E944B
:10392000C83118162CF520E030E046E953E4C70111
:10393000B6010E94D82E87FF1BC080900A0390908A
:103940000B03A0900C03B0900D032DEC3CEC4CEC61
:103950005DE3C501B4010E94D82E18160CF447C6C9
:10396000C0920A03D0920B03E0920C03F0920D0375
:1039700060910A0370910B0380910C0390910D03E9
:103980000E943E319B01770F440B550B24563109A1
:1039900041095109A4E6B0E00E941B3026EA3FEF3E
:1039A0004FEF5FEF0E94FC2FCA5EDE4F3983288302
:1039B000C651D1402536310544F084E690E0CA5E18
:1039C000DE4F99838883C651D140CA5EDE4F88811D
:1039D0009981C651D14097FF06C0CA5EDE4F198259
:1039E0001882C651D140EBEDFDE08491E1E8FEE0A4
:1039F0000491EBE3FEE01491112309F419C681113F
:103A00000E948C07E12FF0E0EE0FFF1FEF5FF14FF8
:103A1000A591B491EC910E2391E080E009F490E03F
:103A2000C55EDE4F9883CB51D140C45EDE4F8883A4
:103A3000CC51D14080917B00877F80937B0082E4D2
:103A400080937C0080917A00806480937A008091DA
:103A50007A0086FDFCCF6091780070917900072E86
:103A6000000C880B990B0E94DF2E20E030E040EA2A
:103A700050E40E943E2F20E030E040E85AE30E94EC
:103A80003E2F6B017C0120E030E040E450E40E94D6
:103A9000CD3125E83BE645E053E40E943E2F4B0143
:103AA0005C01A7019601C701B6010E943E2F29E2E1
:103AB0003CED4FE753E40E943E2F9B01AC01C50152
:103AC000B4010E945F304B015C0126EF38E546E50A
:103AD00054E4C701B6010E943E2F9B01AC01C50111
:103AE000B4010E94603020E030E040E05FE30E94DB
:103AF0003E2FC95DDE4F688379838A839B83C752DB
:103B0000D1400E94061920E030E0A9010E946030F7
:103B1000C55DDE4F688379838A839B83CB52D14016
:103B20008091C206807E09F48EC50E9406196DEF51
:103B300088E896E00E94BA19C0909706D09098063F
:103B4000E0909906F0909A062CE2D21A21E0E20A5F
:103B5000F108B0E0A0E04C015D018EE0880C991CFA
:103B6000AA1CBB1C8A95D1F74091BB065091BC069C
:103B7000052E000C660B770B94E1440F551F661F52
:103B8000771F9A95D1F7841A950AA60AB70AA091C9
:103B9000BD06B091BE06A70196010E942630861A86
:103BA000970AA80AB90AC501B401705C8F4F9F4FEC
:103BB000412C20E8522E612C712CA30192010E940D
:103BC000FC2FC55FDE4F288339834A835B83CB504C
:103BD000D140A091BA06B0E0A70196010E941B3027
:103BE00020E038E040E050E00E94FC2F49015A01FB
:103BF00080E8980EA11CB11CA091BF060A2E000CF3
:103C0000BB0BA70196010E942630C12C34E0D32EB5
:103C1000E12CF12CA70196010E94FC2FCA01B901E9
:103C2000A50194010E945233A70196010E94FC2F26
:103C3000405E5F4FA091B806B091B9060E94263051
:103C4000705E8F4F9F4F20E030E440E050E00E94D4
:103C5000FC2FC55FDE4F688179818A819B81CB50C3
:103C6000D1400E9452336B017C01A30192010E945A
:103C7000FC2FCA01B9010E9452339B01AC0167E0DD
:103C800055954795379527956A95D1F7A091B70631
:103C9000B0E00E941B3020E130E040E050E00E94A4
:103CA000FC2FC21AD30AE40AF50AF7FE03C0C12C9E
:103CB000D12C7601C701B60161307105810529E17A
:103CC000920724F060E070E080E099E10CE09595C7
:103CD0008795779567950A95D1F70E94DD2E20E0AC
:103CE00030E040E85AE30E943E2F20E030E0A90196
:103CF0000E946030C15DDE4F688379838A839B8335
:103D0000CF52D1408091C106887309F4A1C40E94AA
:103D1000061987EF0E94D818CD5CDE4F688379833F
:103D20008A839B83C353D1408091970690919806D4
:103D3000A0919906B0919A066C017D01FF0CCC0808
:103D4000DC2C76019C01AD016C2D7C2D8C2D9C2DE5
:103D5000345F414051096109710981099109C55FC9
:103D6000DE4F2883CB50D140C15FDE4F3883CF5028
:103D7000D140C05FDE4F4883C051D140CF5EDE4F9F
:103D80005883C151D140CE5EDE4F6883C251D140CD
:103D9000CD5EDE4F7883C351D140CC5EDE4F888349
:103DA000C451D140CB5EDE4F9883C551D1405901FB
:103DB0006A017B018C010E946A33C85EDE4F288352
:103DC000C851D140C75EDE4F3883C951D140C65E6D
:103DD000DE4F4883CA51D140C35EDE4F5883CD5178
:103DE000D140C25EDE4F6883CE51D140C15EDE4F0E
:103DF0007883CF51D140C05EDE4F8883C052D1401E
:103E0000CF5DDE4F9883C152D1403091A8062091FA
:103E1000A706932F990F990B492F592F692F792FA7
:103E2000892F0E946A330CE00E94993419012A01FB
:103E30003B014C013091AA062091A906932F990FBE
:103E4000990BC85EDE4FA880C851D140C75EDE4FD7
:103E5000B880C951D140C65EDE4FC880CA51D1403A
:103E6000C35EDE4FD880CD51D140C25EDE4FE880C8
:103E7000CE51D140C15EDE4FF880CF51D140C05EFF
:103E8000DE4F0881C052D140CF5DDE4F1881C15254
:103E9000D140492F592F692F792F892F0E946A33DA
:103EA000F22E032F142FB52FF62FE72FD82EE92E41
:103EB000A0E00E94E13484F421503F4F4F4F5F4F08
:103EC0006F4F7F4F8F4F9F4FF22E032F142FB52F21
:103ED000F62FE72FD82EE92E2F2D302F412F5B2FD5
:103EE0006F2F7E2F8D2D9E2D08E00E94B234510140
:103EF0006201730184010E94CF3470588F4F9F4F2D
:103F00002090A5063090A6065101C12CD12CE12CA1
:103F1000F12C00E010E00E946A33F22E032F142FE0
:103F2000B52FF62FE72FD82EE92EA0E00E94E1341E
:103F300084F421503109410951096E4F7F4F8F4F51
:103F40009F4FF22E032F142FB52FF62FE72FD82EC9
:103F5000E92E2F2D302F412F5B2F6F2F7E2F8D2D90
:103F60009E2D01E20E94B234CE5DDE4F2883C25204
:103F7000D140CD5DDE4F3883C352D140CC5DDE4FA2
:103F80004883C452D140CB5DDE4F5883C552D140E7
:103F9000CA5DDE4F6883C652D140272E382E492E87
:103FA000A0E0812C912C54010E94E13409F48EC2CE
:103FB0003091B0062091AF06932F990F990BC85EF0
:103FC000DE4FA880C851D140C75EDE4FB880C951CE
:103FD000D140C65EDE4FC880CA51D140C35EDE4FBD
:103FE000D880CD51D140C25EDE4FE880CE51D14065
:103FF000C15EDE4FF880CF51D140C05EDE4F0881F8
:10400000C052D140CF5DDE4F1881C152D140492FFF
:10401000592F692F792F892F0E946A33C85EDE4F8E
:104020002883C851D140C75EDE4F3883C951D14083
:10403000C65EDE4F4883CA51D140552E3B014C012C
:104040003091AE062091AD06932F990F990BC55F65
:10405000DE4FA880CB50D140C15FDE4FB880CF503B
:10406000D140C05FDE4FC880C051D140CF5EDE4F2F
:10407000D880C151D140CE5EDE4FE880C251D140E0
:10408000CD5EDE4FF880C351D140CC5EDE4F08815B
:10409000C451D140CB5EDE4F1881C551D140492F6C
:1040A000592F692F792F892F0E946A3301E10E94CD
:1040B0009934C85EDE4FA880C851D140C75EDE4F3C
:1040C000B880C951D140C65EDE4FC880CA51D140C8
:1040D000D52C730184010E94CF3459016A017B0100
:1040E000582E192FCD5CDE4F488159816A817B8122
:1040F000C353D14024E075956795579547952A9508
:10410000D1F780E090E0A0E1B0E0841B950BA60B16
:10411000B70B3C014D01990C6608762C43019C01BC
:10412000AD01662D762D862D962D0FE10E949934D6
:1041300039014A01B62FA72FF82FE92F3091AC068D
:104140002091AB06932F990F990B492F592F692F67
:10415000792F892F03E20E949934052D0E94CF34D4
:1041600059016A017B018C019301A4016B2F7A2F05
:104170008F2F9E2F0E94D834E5E3AE2EFCE0BF2E99
:10418000C12CD12CE12CF12C00E010E00E946A330C
:10419000CE5DDE4FA880C252D140CD5DDE4FB880EB
:1041A000C352D140CC5DDE4FC880C452D140CB5DFC
:1041B000DE4FD880C552D140CA5DDE4FE880C6527E
:1041C000D140F22C032D142D0E94C43319012A0171
:1041D0003B014C01F22E032D142FB52DF62FE72DA8
:1041E000D82EE92CA0E00E94E13484F42150304E16
:1041F0004F4F5F4F6F4F7F4F8F4F9F4FF22E032FC9
:10420000142FB52FF62FE72FD82EE92E2F2D302F74
:10421000412F5B2F6F2F7E2F8D2D9E2D0DE00E9445
:10422000B234C55FDE4F2883CB50D140C15FDE4F33
:104230003883CF50D140C05FDE4F4883C051D1405A
:10424000CF5EDE4F5883C151D140CE5EDE4F6883D2
:10425000C251D140CD5EDE4F7883C351D140CC5E98
:10426000DE4F8883C451D140CB5EDE4F9883C55169
:10427000D1403091B6062091B506932F990F990B36
:10428000C55FDE4FA880CB50D140C15FDE4FB88004
:10429000CF50D1406A017B01082FCB5EDE4F1881E1
:1042A000C551D140492F592F692F792F892F0E944D
:1042B0006A330E946A33F22E032F142FB52FF62F84
:1042C000E72FD82EE92EA0E00E94E13484F421509B
:1042D000310941095E4F6F4F7F4F8F4F9F4FF22E35
:1042E000032F142FB52FF62FE72FD82EE92E2F2DC1
:1042F000302F412F5B2F6F2F7E2F8D2D9E2D09E1AB
:104300000E94B23451016201730184010E94CF34D2
:10431000C55FDE4F2883CB50D140C15FDE4F38836D
:10432000CF50D140C05FDE4F4883C051D140CF5EF7
:10433000DE4F5883C151D140CE5EDE4F6883C251FB
:10434000D140CD5EDE4F7883C351D140CC5EDE4F8D
:104350008883C451D140CB5EDE4F9883C551D14094
:104360003091B4062091B306932F990F990B492FE2
:10437000592F692F792F892F0E946A33F22E032F2C
:10438000142FB52FF62FE72FD82EE92EA0E00E948C
:10439000E13484F421503109484F5F4F6F4F7F4F14
:1043A0008F4F9F4FF22E032F142FB52FF62FE72F8D
:1043B000D82EE92E2F2D302F412F5B2F6F2F7E2FE0
:1043C0008D2D9E2D03E10E94B23459016A017B01BB
:1043D0008C01C55FDE4F2881CB50D140C15FDE4FDD
:1043E0003881CF50D140C05FDE4F4881C051D140AD
:1043F000CF5EDE4F5881C151D140CE5EDE4F688125
:10440000C251D140CD5EDE4F7881C351D140CC5EE8
:10441000DE4F8881C451D140CB5EDE4F9881C551BB
:10442000D1400E94CF34F22E032F142FB52FF62F38
:10443000E72FD82EE92EA0E00E94E13484F4215029
:104440003F4F4F4F5F4F6F4F7F4F8F4F9F4FF22E1A
:10445000032F142FB52FF62FE72FD82EE92E2F2D4F
:10446000302F412F5B2F6F2F7E2F8D2D9E2D08E03B
:104470000E94B234A22FF32F6A017B01E82F192F7B
:104480004090B1065090B206052C000C66087708E3
:1044900053014201BB0C8808982C54019201A301DE
:1044A000682D782D882D982D04E00E949934AA2E2D
:1044B000BF2E0E2F0E94CF340E94743120E030E0D6
:1044C00040E85BE30E943E2F4B015C017E0181E0EE
:1044D000E80EF81E870121E041E060E070E080ED29
:1044E00090E40E942D2C20E030E048EC52E4C5011D
:1044F000B4010E94CC300E943E317F936F93C15D26
:10450000DE4F688179818A819B81CF52D1400E94A0
:104510003E317F936F93C55DDE4F688179818A81DB
:104520009B81CB52D1400E943E317F936F93FF928B
:10453000EF92C95DDE4F688179818A819B81C75284
:10454000D1400E943E317F936F93C45EDE4F9881CD
:10455000CC51D1409F93C55EDE4F2881CB51D140D5
:104560002F93C95EDE4F8881C751D1408F93CA5EB9
:10457000DE4F9881C651D1409F9360910A0370919C
:104580000B0380910C0390910D030E943E317F93A9
:104590006F9386E692E09F938F9381E08F931F92B3
:1045A0001A951F930F930E944036C8010E94C61BA4
:1045B0000FB6F894DEBF0FBECDBFCA5CDE4F0FB69C
:1045C000F894DEBF0FBECDBFDF91CF911F910F9149
:1045D000FF90EF90DF90CF90BF90AF909F908F9023
:1045E0007F906F905F904F903F902F9008952DECAB
:1045F0003CEC4CE45EE3C701B6010E943E2F6B0128
:104600007C012DEC3CEC4CE45FE3C501B4010E945D
:104610003E2F9B01AC01C701B6010E946030609340
:104620000A0370930B0380930C0390930D03A0C9AE
:10463000C55EDE4F1882CB51D140C45EDE4F18827A
:10464000CC51D140F7C960E070E080EC9FE74DCBE2
:10465000812C912C80ECA82E8FE7B82E37CF60E00C
:104660008CE10E94F30760E08DE10E94F30761E0B6
:1046700085E00E94210860E085E00E94F307109227
:10468000620384EA92E00C94C61B60E08AE10E9417
:10469000F30760E08BE10E94F30761E084E00E9491
:1046A000210860E084E00E94F3071092630382EB2C
:1046B00092E00C94C61B60E088E10E94F30760E082
:1046C00089E10E94F30761E087E00E94210860E031
:1046D00087E00E94F3071092640380EC92E00C9450
:1046E000C61B60E086E10E94F30760E087E10E945C
:1046F000F30761E086E00E94210860E086E00E9406
:10470000F30710926D038EEC92E00C94C61B1F927F
:104710000F920FB60F9211242F933F938F939F9375
:10472000AF93BF938091700490917104A091720433
:10473000B091730430916F0423E0230F2D3758F5A7
:104740000196A11DB11D20936F0480937004909376
:104750007104A0937204B0937304809174049091D7
:104760007504A0917604B09177040196A11DB11D46
:104770008093740490937504A0937604B0937704A7
:10478000BF91AF919F918F913F912F910F900FBE4D
:104790000F901F90189526E8230F0296A11DB11DBA
:1047A000D2CF1F920F920FB60F9211240BB60F9219
:1047B0002F933F934F935F936F937F938F939F9329
:1047C000AF93BF93EF93FF938EEE94E00E9449095D
:1047D000FF91EF91BF91AF919F918F917F916F91D9
:1047E0005F914F913F912F910F900BBE0F900FBE95
:1047F0000F901F9018951F920F920FB60F921124D1
:104800000BB60F922F938F939F93EF93FF93E091AB
:10481000FE04F091FF048081E0910405F09105050C
:1048200082FD1DC09081809107058F5F8F7320915D
:104830000805821741F0E0910705F0E0E251FB4FD7
:10484000958F80930705FF91EF919F918F912F9105
:104850000F900BBE0F900FBE0F901F901895808188
:10486000F2CF1F920F920FB60F9211240BB60F9238
:104870002F933F934F935F936F937F938F939F9368
:10488000AF93BF93EF93FF938BE895E00E944909A4
:10489000FF91EF91BF91AF919F918F917F916F9118
:1048A0005F914F913F912F910F900BBE0F900FBED4
:1048B0000F901F9018951F920F920FB60F92112410
:1048C0000BB60F922F938F939F93EF93FF93E091EB
:1048D0009B05F0919C058081E091A105F091A205D6
:1048E00082FD1DC090818091A4058F5F8F73209100
:1048F000A505821741F0E091A405F0E0E557FA4FD5
:10490000958F8093A405FF91EF919F918F912F91A7
:104910000F900BBE0F900FBE0F901F9018958081C7
:10492000F2CF1F920F920FB60F9211240BB60F9277
:104930002F933F934F935F936F937F938F939F93A7
:10494000AF93BF93EF93FF938091B900887F803638
:1049500009F44DC008F040C0883209F4A9C028F518
:10496000803109F49DC0C8F4882309F4FBC0883065
:1049700009F496C0FF91EF91BF91AF919F918F91F4
:104980007F916F915F914F913F912F910F900BBE4F
:104990000F900FBE0F901F901895883109F488C0B2
:1049A000803241F78093C20414C0803409F49DC062
:1049B00040F48033B9F38833E9F68093C20485EC80
:1049C000B0C0803509F485C0883509F496C08834B4
:1049D00089F60E948E1BCECF883909F48CC038F539
:1049E000883729F050F4883611F0803719F683E0C3
:1049F0008093C4041092510357C0883809F47BC0D7
:104A0000803919F0803809F0B5CF80915103803298
:104A100008F071C0E091510381E08E0F8093510343
:104A20008091BB00F0E0EF5CFC4F80833DC0803B99
:104A300039F0E0F4803A09F479C0883A09F09ACF65
:104A400084E08093C4041092300310922F03E0910D
:104A50007A04F0917B04199580912F0381110FC086
:104A600081E080932F0310920F0309C0803C09F46A
:104A7000A6CF883C09F4A3CF883B09F07BCFE09117
:104A8000300381E08E0F80933003F0E0E15FFC4F54
:104A900080818093BB009091300380912F0329C0C7
:104AA00080919F048093BB0085EC8093BC0062CF13
:104AB0009091C1048091C004981758F5E091C10409
:104AC00081E08E0F8093C104F0E0E056FB4F8081BF
:104AD000E9CFE091C10481E08E0F8093C104809101
:104AE000BB00F0E0E056FB4F80839091C1048091C1
:104AF000C0049817C8F285E8D8CFE091C10481E0DE
:104B00008E0F8093C1048091BB00F0E0E056FB4F14
:104B100080838091C30481115CCF81E080939E04E7
:104B200084EA8093BC001092C40424CF85EC809367
:104B3000BC001092C40480915103803230F4E091A3
:104B40005103F0E0EF5CFC4F10826091510370E084
:104B5000E0917804F091790481E393E01995109243
:104B6000510308CF1092C20434CFCF92DF92EF925C
:104B7000FF920F931F93E82FF92F05C001501109E1
:104B80002109310961F1908196239417B9F305C089
:104B9000015011092109310911F1908196239413D3
:104BA000F7CFC12CD12CE12CF12C0AC08FEFC81A01
:104BB000D80AE80AF80A0C151D052E053F0579F0FC
:104BC00080818623841791F36C2D7D2D8E2D9F2D52
:104BD0001F910F91FF90EF90DF90CF90089560E0CC
:104BE00070E080E090E01F910F91FF90EF90DF90D8
:104BF000CF9008950F931F93CF93DF93EC010A8119
:104C00001B810115110559F0D80112968D919C91C7
:104C1000009711F00E948935C8010E94893588816A
:104C20009981009711F00E9489358C819D810097B0
:104C300039F0DC01ED91FC910280F381E02D1995B2
:104C40008E819F81009739F0DC01ED91FC9102800B
:104C5000F381E02D199588859985009759F0DC013D
:104C6000ED91FC910280F381E02DDF91CF911F91B6
:104C70000F911994DF91CF911F910F9108958DE4B9
:104C800096E00E94FA2588E896E00E94FA258EE2D6
:104C900092E09093D0068093CF068091EE0690919B
:104CA000EF06009711F00C9489350895CF93DF93A8
:104CB000EEEEF4E01382128248EE53E060E070E022
:104CC00044835583668377838AE092E0918380836F
:104CD0002DEC30E0358724872CEC30E037872687B1
:104CE00028EC30E0318B208B29EC30E0338B228BA9
:104CF0002AEC30E0358B248B2EEC30E0378B268B82
:104D0000118E128E138E148EEBE8F5E01382128250
:104D100044835583668377839183808385EC90E019
:104D20009587848784EC90E09787868780EC90E075
:104D3000918B808B81EC90E0938B828B82EC90E066
:104D4000958B848B86EC90E0978B868B118E128EE0
:104D5000138E148EA3ECB6E013961C921E9212973B
:104D600014964D935D936D937C9317978CE192E02D
:104D700011969C938E93EFECF6E01382128220E85A
:104D800030E03583248380E490E097838683318705
:104D9000208793878287168A15861486178616863B
:104DA000D1E0D58BD48B8FEF9FEF938B828B918B40
:104DB000808BD78B108E128E118E8EE292E09183B3
:104DC0008083148E138EB68FA58F10A2178ECFEF0F
:104DD000C4A3C5A3C6A3C7A3C0A780E89AE1A6E061
:104DE000B0E085AB96ABA7ABB0AF80EA96E8A1E0A8
:104DF000B0E081AF92AFA3AFB4AF80E586AF17AE9E
:104E0000E8E8F6E011821082138212821582148281
:104E10001782168211861086138A148A158A168ABA
:104E2000EDE4F6E011821082138212821582148260
:104E30001782168211861086138A148A158A168A9A
:104E400060E081E20E942108E2E8FEE0E491AFE345
:104E5000B6E0EC93ECE3FEE0E491F0E0EE0FFF1F30
:104E6000EF5FF14F8591949112969C938E931197D9
:104E70001B961C921B971D961C921D971C961C92AC
:104E80001C971A961C921A9719961C9219971896A5
:104E90001C92189717961C92179716961C921697A5
:104EA00015961C92159714961C92149713961C92A3
:104EB0001397E8E2F6E017821086108289E0838378
:104EC000D483D583D6831182168A158AC38B148A1C
:104ED000B287A187DF91CF910895789484B58260DD
:104EE00084BD84B5816084BD85B5826085BD85B58E
:104EF000816085BD80916E00816080936E0010920C
:104F00008100809181008260809381008091810086
:104F10008160809381008091800081608093800017
:104F20008091B10084608093B1008091B000816075
:104F30008093B00080919100826080939100809175
:104F400091008160809391008091900081608093B6
:104F500090008091A10082608093A1008091A100C7
:104F600081608093A1008091A00081608093A00067
:104F700080912101826080932101809121018160D3
:104F80008093210180912001816080932001809194
:104F90007A00846080937A0080917A0082608093A6
:104FA0007A0080917A00816080937A0080917A0003
:104FB000806880937A001092C100E0919B05F09187
:104FC0009C0522E02083E0919705F09198051082DE
:104FD000E0919905F0919A0580E180831092A305F4
:104FE000E0919F05F091A00596E09083E0919D05EA
:104FF000F0919E05808180618083E0919D05F09114
:105000009E05808188608083E0919D05F0919E05DA
:10501000808180688083E0919D05F0919E0580816C
:105020008F7D8083E091FE04F091FF042083E09166
:10503000FA04F091FB041082E091FC04F091FD046D
:105040008FEC808310920605E0910205F091030534
:105050009083E0910005F09101058081806180835B
:10506000E0910005F0910105808188608083E091E6
:105070000005F0910105808180688083E091000542
:10508000F091010580818F7D808361E086E00E9440
:10509000210861E086E10E94210861E087E10E9429
:1050A000210861E087E00E94210861E088E10E9418
:1050B000210861E089E10E94210861E084E00E940A
:1050C000210861E08AE10E94210861E08BE10E94F1
:1050D000210861E085E00E94210861E08CE10E94E6
:1050E000210861E08DE10E94210861E08EE10E94CB
:1050F000210860E082E00E94210862E080E20E94D4
:1051000021088091EE069091EF06892B09F072C07C
:105110002091D5063091D606C901079697FD0796CE
:10512000C3E095958795CA95E1F72091D306309114
:10513000D406AC01429FC001439F900D529F900D39
:1051400011240E94ED349093EF068093EE06892B94
:1051500009F050C081E69DE00E946E1B67E788E879
:1051600096E00E94001A66E78DE496E00E94001A1D
:105170008AE39DE00E946E1B88E19DE00E946E1B09
:1051800082EF9CE00E946E1BC1E080E4C82E82E4A6
:10519000D82E8FE0E82EF12C0FEF10E08EEE94E089
:1051A0000E94290920916E04181619060CF035C2C8
:1051B000211135C28EEE94E00E94070990915503AB
:1051C000992309F424C22091530330915403F90127
:1051D000E259FC4F8E3309F410C280832F5F3F4F9A
:1051E0002F3F310509F00CF403C2109354030093D0
:1051F0005303D4CF2091D5063091D606C901079626
:1052000097FD0796B3E095958795BA95E1F72091BC
:10521000D3063091D406829FA001839F500D929FA8
:10522000500D112470E060E08091EE069091EF0641
:105230000E9417362091D5063091D6068091D3066C
:105240009091D406B901213231050CF4EBC06054C1
:10525000710977FF02C06F5F7F4F75956795825523
:10526000910997FD019600E410E022E530E042E369
:105270005AE0959587950E94A71282E08093F106E7
:105280008091EC069091ED06892B09F4DEC08CE349
:105290008093F0060E94FA138091F70687FD1EC0E6
:1052A00061E00E94210861E08091F7060E94F30707
:1052B00061E070E080E090E00E948D0860E0809105
:1052C000F7060E94F3076AE070E080E090E00E9439
:1052D0008D0861E08091F7060E94F3078091EC064B
:1052E0009091ED06892B09F43DC12091040730917E
:1052F0000507409106075091070760E074E284EFCC
:1053000090E00E942E3020513109410951095695F3
:105310004795379527952093B80064E08EE498E090
:105320000E9422156091D50661508FEC96E00E9494
:10533000D31564E08AE498E00E9422158091F1067A
:1053400060E1813009F064E18FEC96E00E94D315B2
:1053500064E086E498E00E9422158FE880930C07B1
:105360008091D3069091D4068038910509F011C13F
:105370008091D5069091D6068034910509F019C127
:105380008091F106813009F027C18FE980930C07E5
:10539000C2E16AED8FEC96E00E94D3156C2F8FEC82
:1053A00096E00E94D31561E88FEC96E00E94D31539
:1053B00060910C078FEC96E00E94D31569ED8FEC9D
:1053C00096E00E94D3158091F10662E2813009F0E7
:1053D00061EF8FEC96E00E94D31566E080E498E0E0
:1053E0000E9422158091EC069091ED06892B09F41C
:1053F000F5C0209108073091090740910A075091A4
:105400000B0760E074E284EF90E00E942E302051A0
:1054100031094109510956954795379527952093AC
:10542000B8009CCE6052710977FF02C06F5F7F4F5A
:10543000759567958357910997FD019600E210E0F5
:1054400023E730E042E558E014CF61E08091F506B3
:105450000E94210861E08091F6060E942108809157
:10546000F506082E000C990BFC01E55EF14FE49166
:10547000F0E0EE0FFF1FEF55F24F2591349130937E
:10548000FD062093FC06FC01EF59F14FE491E093F7
:1054900002078091F606082E000C990BFC01E55ED0
:1054A000F14FE491F0E0EE0FFF1FEF55F24FA591A1
:1054B000B491B093FF06A093FE06FC01EF59F14FA3
:1054C000E491E09303078C91E82BEC938091EA063A
:1054D0009091EB06892B19F00E945B0CDDCE61E008
:1054E0008091F3060E94210861E08091F4060E94F9
:1054F00021088091F306082E000C990BFC01E55E53
:10550000F14FE491F0E0EE0FFF1FEF55F24F2591C0
:1055100034913093F9062093F806FC01EF59F14FCE
:10552000E491E09300078091F406082E000C990B9B
:10553000FC01E55EF14FE491F0E0EE0FFF1FEF5547
:10554000F24FA591B491B093FB06A093FA06FC012B
:10555000EF59F14FE491E09301078C91E095E82336
:10556000EC939ACE8091EA069091EB06892B31F06C
:1055700080910D0790910E070E947B0DE091FE0631
:10558000F091FF06908180910307809589238083A5
:10559000C4CE8036910589F48091D5069091D606C7
:1055A000409739F48091F106813029F480E18093AD
:1055B0000C07C2E0EECE8FEAFACF80349105C9F72E
:1055C0008091D5069091D606809799F78091F10643
:1055D000813011F480E1DACE8FECD8CEE091FE0676
:1055E000F091FF06808190910307892B8083B6CDCF
:1055F0003093540320935303D1CD1082109255035E
:105600001092540310925303C0936E04C7CD8C3391
:1056100009F0C4CDC0935503C1CD2223C9F1109226
:105620006E046CE770E08EE693E00E9435360097DA
:1056300079F1FC0110826CED72E08EE693E00E943D
:105640001E36892B09F098C061E08CE10E94F307B7
:1056500060E08DE10E94F30761E085E00E9421088F
:1056600061E085E00E94F307C0925A03D0925B0389
:10567000E0925C03F0925D030E94BF0860935E03BA
:1056800070935F038093600390936103C093620300
:1056900080916D038823E9F00E94BF088090690320
:1056A00090906A03A0906B03B0906C03681979091D
:1056B0008A099B098090650390906603A090670318
:1056C000B0906803681579058A059B0510F00E9463
:1056D000712380916403882321F00E94BF080E94F7
:1056E0005B2380916303882321F00E94BF080E94FE
:1056F0004523809162038823E9F00E94BF088090CF
:105700005E0390905F03A0906003B09061036819FE
:1057100079098A099B0980905A0390905B03A090B5
:105720005C03B0905D03681579058A059B0510F050
:105730000E942F230E94BF08809056039090570329
:10574000A0905803B0905903681979098A099B09F8
:10575000693873418105910560F00E94BF0860932C
:1057600056037093570380935803909359030E94F4
:105770002E1C0E94D80912CD65EE72E08EE693E0F1
:105780000E941E36892B19F40E942F2381CF48E0F6
:1057900050E061EF72E08EE693E00E942736892B9D
:1057A00089F586E793E00E944B2C4B015C0161E098
:1057B00086E10E94F30760E087E10E94F30761E061
:1057C00086E00E94210861E086E00E94F307A8ECD1
:1057D000B0E0A50194010E941B30609365037093B3
:1057E000660380936703909368030E94BF086093E9
:1057F000690370936A0380936B0390936C03C09367
:105800006D0346CF6AEF72E08EE693E00E941E368B
:10581000892B09F03DCF0E9471230E945B230E94D7
:1058200045230E942F238CE69DE00E946E1B8EEE86
:1058300094E00E942909181619063CF06AE070E00D
:1058400080E090E00E948D08F2CF8EEE94E00E94FE
:1058500007098334910591F71BCFEF920F931F93A4
:10586000CF93DF93E80134E047FD34E1042E000CD0
:10587000550B57FF03C0519541955109E32E022F57
:10588000242FAE010E94872CCE01DF91CF911F9172
:105890000F91EF9008951F93FC0199278827BC0171
:1058A000E89411911032E9F3193010F01E30C8F36A
:1058B0001B3251F01D3249F4689406C00E94722CCC
:1058C000610F711D811D911D119110531A30B0F39C
:1058D0003EF490958095709561957F4F8F4F9F4FC7
:1058E0001F910895592F482F372F262F660F771FA6
:1058F000881F991F660F771F881F991F620F731FDC
:10590000841F951F660F771F881F991F08958F9218
:105910009F92AF92BF92CF92DF92EF92FF920F933E
:105920001F93CF93DF9300D000D000D0CDB7DEB768
:105930006A01F22EB02E102FFBE3AF2EA01608F452
:105940001BE31F5F012F27E0AE014F5F5F4F0E94F7
:10595000002EBC018981982F9970913009F44EC0B6
:105960009BE2E1FC04C09E2D9170E0FC49C05E2DDD
:105970005071E82FE87083FF55C084E0911101C099
:1059800083E0EF2DE81B8F1508F0E0E0D6018E2FA5
:1059900020E25523C9F1992329F0D6019C93C60131
:1059A00001966C0196012D5F3F4FE2FE33C08EE4FD
:1059B000D6018C9391E411969C93119712968C9337
:1059C000D9018E2F90E281112AC0E20FF32FF11D31
:1059D00010828EEF9FEF29960FB6F894DEBF0FBEB0
:1059E000CDBFDF91CF911F910F91FF90EF90DF908E
:1059F000CF90BF90AF909F908F9008959DE2B7CFCA
:105A000090E2B5CF2D9381508111FCCFCE0ED11CE9
:105A1000E0E0C1CF8EE6D6018C9391E6CCCF9D938A
:105A20008150D1CF482F447082FF3DC084E0911156
:105A300001C083E08F1510F4EF2DE81BD6018E2FE7
:105A400020E2552309F1992329F0D6019C93C60140
:105A500001966C0196012D5F3F4FE2FE1BC089E469
:105A6000D6018C938EE411968C93119786E412964E
:105A70008C93D9018E2F90E2882309F4A6CF9D93B1
:105A80008150FACF2D9381508111FCCFCE0ED11CC5
:105A9000E0E0D9CF89E6D6018C938EE611968C93FF
:105AA000119786E6E4CF9B0177FF02C030E020E04B
:105AB000A1E0B0E0911102C0B0E0A0E0F9013196A0
:105AC000AE0FBF1F8B2C912CBB2009F461C0540179
:105AD000EFEFAE1ABE0AAA0DBB1DFA161B0619F08F
