:100000000C9451070C94A7270C947C270C9451272F
:100010000C9426270C94FB260C94D0260C94A52631
:100020000C947A260C9482070C9482070C94820715
:100030000C9482070C9482070C9482070C9482071C
:100040000C9482070C9482070C9482070C9482070C
:100050000C9482070C9482070C9482070C9430262F
:100060000C9482070C945C280C9432280C94820720
:100070000C9482070C9482070C9482070C948207DC
:100080000C9482070C9482070C9482070C948207CC
:100090000C94FC270C94D2270C9482070C94922881
:1000A0000C9482070C9482070C9482070C948207AC
:1000B0000C9482070C9482070C9482070C9482079C
:1000C0000C9482070C9482070C9482070C9482078C
:1000D0000C9482070C9482070C9482070C9482077C
:1000E0000C9482070C9484070C94EA070C9443093F
:1000F0000C94CA070C9465090C947A310C94FE0C8C
:100100000C94C4070C9461190C940D150C94E6071B
:100110000C94402A0C94DC070C94B7070C94E11360
:100120000C94A7090C9454110C94FD120C943409EE
:100130000C94DE310C947B160C946E310C94D531FA
:100140000C9406090C94CC310C9461140C94B307F4
:100150000C9485120C94C0070C94BA070C94D80721
:100160000C94E0070C94CE070C948A160C941A1386
:100170000C941A0F0C9457090C94ED130C948607E9
:100180000C94E0190C94E1310C94AB070C942612FA
:100190000C94D2070C94AF070C94E5070C94B70CA1
:1001A0000C94C3310C9485070C94DB310C94F91337
:1001B0000C948D470C94A5070C94A4160C94D113A1
:1001C0000C94D1160C949D160C94D8310C94DD1916
:1001D0000C94312B0C946E0C0C9407090C940F0AA0
:1001E0004E414E494E495459494E46CDCCCC3D0A1C
:1001F000D7233C17B7D13877CC2B329595E6241FFF
:10020000B14F0A000020410000C84200401C4620B7
:10021000BCBE4CCA1B0E5AAEC59D7400407A10F38A
:100220005A00A0724E18090010A5D4E80000E87624
:1002300048170000E40B54020000CA9A3B0000007B
:10024000E1F505000080969800000040420F000094
:1002500000A08601000000102700000000E8030055
:100260000000006400000000000A0000000000011F
:1002700000000000002C76D888DC674F0823DFC11F
:10028000DFAE59E1B1B796E5E3E453C63AE65199DA
:100290007696E8E6C28426EB898C9B62ED407C6F03
:1002A000FCEFBC9C9F40F2BAA56FA5F490055A2ABA
:1002B000F75C936B6CF9676DC11BFCE0E40D47FEC6
:1002C000F520E6B500D0ED902E03009435770500BB
:1002D00080841E080000204E0A000000C80C333342
:1002E00033330F986E12831141EF8D2114893BE651
:1002F0005516CFFEE6DB18D1844B381BF77C1D90DA
:100300001DA4BBE424203284725E228100C9F12442
:10031000ECA1E53D2700000000003E5B4F5B3E3E48
:100320006B4F6B3E1C3E7C3E1C183C7E3C181C57A1
:100330007D571C1C5E7F5E1C00183C1800FFE7C345
:10034000E7FF0018241800FFE7DBE7FF30483A0614
:100350000E2629792926407F050507407F05253F80
:100360005A3CE73C5A7F3E1C1C08081C1C3E7F146C
:10037000227F22145F5F005F5F06097F017F0066B6
:1003800089956A606060606094A2FFA29408047E10
:10039000040810207E201008082A1C08081C2A08BF
:1003A000081E101010100C1E0C1E0C30383E383079
:1003B000060E3E0E06000000000000005F00000078
:1003C00007000700147F147F14242A7F2A122313A6
:1003D00008646236495620500008070300001C22BA
:1003E00041000041221C002A1C7F1C2A08083E08EC
:1003F00008008070300008080808080000606000ED
:1004000020100804023E5149453E00427F400072E0
:10041000494949462141494D331814127F10274557
:100420004545393C4A494931412111090736494975
:100430004936464949291E00001400000040340096
:10044000000008142241141414141400412214084A
:1004500002015909063E415D594E7C1211127C7F02
:10046000494949363E414141227F4141413E7F4910
:100470004949417F090909013E414151737F0808FB
:10048000087F00417F41002040413F017F08142246
:10049000417F404040407F021C027F7F0408107F64
:1004A0003E4141413E7F090909063E4151215E7F9F
:1004B00009192946264949493203017F01033F4072
:1004C00040403F1F2040201F3F4038403F631408FA
:1004D000146303047804036159494D43007F41418B
:1004E000410204081020004141417F04020102043E
:1004F0004040404040000307080020545478407FAB
:10050000284444383844444428384444287F3854E4
:1005100054541800087E090218A4A49C787F08048B
:10052000047800447D40002040403D007F10284476
:100530000000417F40007C047804787C0804047843
:100540003844444438FC1824241818242418FC7C0B
:1005500008040408485454542404043F44243C40F0
:1005600040207C1C2040201C3C4030403C44281053
:1005700028444C9090907C4464544C44000836418C
:10058000000000770000004136080002010204026A
:100590003C2623263C1EA1A161123A4040207A3815
:1005A0005454555921555579412254547842215576
:1005B00054784020545579400C1E527212395555CA
:1005C0005559395454545939555454580000457CA0
:1005D000410002457D420001457C407D1211127DA3
:1005E000F0282528F07C545545002054547C547C38
:1005F0000A097F4932494949323A4444443A324A25
:100600004848303A4141217A3A42402078009DA042
:10061000A07D3D4242423D3D4040403D3C24FF24C0
:1006200024487E4943662B2FFC2F2BFF0929F620F7
:10063000C0887E090320545479410000447D413034
:1006400048484A32384040227A007A0A0A727D0DC0
:1006500019317D2629292F28262929292630484D78
:100660004020380808080808080808382F10C8ACC7
:10067000BA2F102834FA00007B000008142A142234
:1006800022142A14085500550055AA55AA55AAFF48
:1006900055FF55FF000000FF00101010FF0014145C
:1006A00014FF001010FF00FF1010F010F0141414CD
:1006B000FC001414F700FF0000FF00FF1414F40402
:1006C000FC141417101F10101F101F1414141F00F7
:1006D000101010F0000000001F101010101F10105C
:1006E0001010F010000000FF10101010101010106B
:1006F00010FF10000000FF140000FF00FF00001FAB
:1007000010170000FC04F414141710171414F40448
:10071000F40000FF00F714141414141414F700F775
:10072000141414171410101F101F141414F41410A0
:1007300010F010F000001F101F0000001F14000038
:1007400000FC140000F010F01010FF10FF1414143F
:10075000FF141010101F00000000F010FFFFFFFF3B
:10076000FFF0F0F0F0F0FFFFFF0000000000FFFFDF
:100770000F0F0F0F0F3844443844FC4A4A4A347E66
:1007800002020606027E027E026355494163384436
:10079000443C04407E201E2006027E020299A5E70A
:1007A000A5991C2A492A1C4C7201724C304A4D4DA5
:1007B000303048784830BC625A463D3E494949008D
:1007C0007E0101017E2A2A2A2A2A44445F444440A9
:1007D000514A444040444A51400000FF0103E08038
:1007E000FF000008086B6B083612362436060F0926
:1007F0000F06000018180000001010003040FF0124
:1008000001001F01011E00191D1712003C3C3C3C59
:100810000000000000000103070F1F3F7F0080C0A1
:10082000E0F0F8FCFE005EBCE2613FDD83C29C7E2E
:1008300020A3FD1F41009D23BE46DB65F88C11AF50
:1008400032CA57E974DB40A4A62EAF2000A1C8D35A
:1008500000408DAED580A8000060000000000000C0
:100860000000000000000000E000000000000000A8
:1008700000000000000001E0000000000000000097
:10088000000000000001F000000000000000000077
:100890000000000003F00000000000000000000065
:1008A00000000007F0000000000000000000000051
:1008B000000007F800000000000000000000000039
:1008C000000FF800000003C0007E000001E0007F80
:1008D0000FF800000003C000FE000001E000FFEF81
:1008E000F800000003C000FE000001E000FFFFF878
:1008F00000000003C000F00000000F007FFE7FC07A
:10090000000003C000F00000000F003FFE7FF83F32
:10091000F1FBCFFCFEF3BC3DEFE01FFE7FFF7FFB52
:10092000FFDFFEFEFFBC3DEFE01FC6FFFF7FFBFFCA
:10093000DFFEFEFFBC3DEFE00FE3C7FE787BC3DECA
:100940001EF0FFBC3DEF0007FF87FC787BC3DE1E77
:10095000F0F83C3DEF0001FFFFF0007BC3C01EF04C
:10096000F03C3DEF0001F37FE03FFBC3CFFEF0F032
:100970003C3DEF0003E33F807FFBC3DFFEF0F03C34
:100980003DEF0007E73C00787BC3DE1EF0F03C3D06
:10099000EF0007FFBE00787BC3DE1EF0F03C3DEFAA
:1009A0000007FFFE00787BC3DE1EF0F03C3DEF0049
:1009B0000FFFFE007FFBFFDFFEF0F03FFDEFE00FDB
:1009C000FFFF007FFBFFDFFEF0F03FFDEFE00FF9E0
:1009D000FF003E79F9CF9EF0F01F3DE7E01FF1FFE9
:1009E0000000000000000000000000001F80FF0069
:1009F0007FFFFFFFFFFFFFFFFFFFE01C007F007F87
:100A0000FFFFFFFEB46D888D18E000001F007FFF20
:100A1000FFFFFE95AD7DB577E000000F007FFFFF83
:100A2000FFFEA5AD9D8D19E0000006007FFFFFFFD2
:100A3000FEB5ADEDB57EE0000000000001800000D5
:100A40000000000000000003800000000000000023
:100A5000000007C000000000000000000007C00008
:100A600000000000000000000FC0000000000000B7
:100A70000000001FE00000000000000000001FE078
:100A80000000000000000000003FE0000000000047
:100A9000000000003FF00000000000000000007FA8
:100AA000F0000000000000001FF87FF000000000D0
:100AB0000000003FFE7FF0000000000000003FFF4C
:100AC0007FF0000000000000001FFFFBE0000000BE
:100AD000000000000FFFF9FFC00000000000000F41
:100AE000FFF9FFF800000000000007FFF1FFFF0022
:100AF000000000000003FC73FFFF80000000000006
:100B000001FE3FFFFF80000000000000FF1E0FFFFE
:100B1000000000000000007FFE1FFC00000000003D
:100B200000003FFFFFF8000000000000000FDFFFA3
:100B3000E0000000000000001F19FFC000000000DE
:100B40000000003F3CFF00000000000000007E7C31
:100B5000F800000000000000007FFE7C00000000A4
:100B600000000000FFFFFC0000000000000000FF8C
:100B7000FFFE0000000000000000FFFFFE0000007C
:100B80000000000001FFEFFE000000000000000177
:100B9000FFCFFE0000000000000003FF07FE000082
:100BA000000000000003FC07FE0000000000000041
:100BB00003F003FE00000000000000018000FE00C2
:100BC0000000000000000000007E000000000000A7
:100BD000000000003E000000000000000000000CCB
:100BE000000000000000078000FC000003C00000BF
:100BF00000078001FC000003C0000000078001FC2A
:100C0000000003C0000000078001E00000001E009B
:100C10000000078001E00000001E007FE3F79FF95D
:100C2000FDE7787BDFC0FFF7FFBFFDFDFF787BDFCF
:100C3000C0FFF7FFBFFDFDFF787BDFC0F0F787BC8B
:100C40003DE1FF787BDE00F0F787BC3DE1F0787B8B
:100C5000DE0000F787803DE1E0787BDE007FF787EC
:100C60009FFDE1E0787BDE00FFF787BFFDE1E078E4
:100C70007BDE00F0F787BC3DE1E0787BDE00F0F73B
:100C800087BC3DE1E0787BDE00F0F787BC3DE1E02A
:100C9000787BDE00FFF7FFBFFDE1E07FFBDFC0FFF9
:100CA000F7FFBFFDE1E07FFBDFC07CF3F39F3DE199
:100CB000E03E7BCFC000000000000000000000000C
:100CC000FFFFFFFFFFFFFFFFFFFFC0FFFFFFFFFD75
:100CD00068DB111A31C0FFFFFFFFFD2B5AFB6AEFE3
:100CE000C0FFFFFFFFFD4B5B3B1A33C0FFFFFFFF61
:100CF000FD6B5BDB6AFDC01F1C1F1E1F1E1F1F1E1E
:100D00001F1E32303A33373A3333004D6179202099
:100D1000382032303236005B484154415D204F4C20
:100D20004544206261736C6174696C616D616469D2
:100D300021005B55594152495D2042696C696E6DD5
:100D40006579656E206B6F6D75743A20005B215D6F
:100D50002047554E43454C4C454D45204D4F44553D
:100D600020414B5449462E204D4547412044555281
:100D7000445552554C44552E0000002100240027B4
:100D8000002A002D0030003300010100000401079B
:100D9000010A0100002200250028002B002E00314E
:100DA00000340002010000050108010B0100000AE7
:100DB0000B02090C0D0E08070304010000000000DF
:100DC0000000000000000000000000000000000023
:100DD00000000000000000000012111000000000E0
:100DE0000000000000000000000000000000000003
:100DF0000000002200FF210000200023002600291F
:100E0000002C002F00320000010000030106010940
:100E10000105050505070508080808020202020A7F
:100E20000A0808040404040101010101010101038D
:100E300003030303030303040707070C0C0C0C0C48
:100E40000C0C0C0202020206060606060606060B3B
:100E50000B0B0B0B0B0B0B010210202008081020B2
:100E60004010204080020102010804020101020436
:100E700008102040808040201008040201800402F5
:100E8000018040201008040201080402010102044C
:100E90000810204080010204081020408000312BFF
:100EA000402A11241FBECFEFD1E2DEBFCDBF00E04C
:100EB0000CBF10E1A0E0B2E0E2E6FAE900E00BBF0F
:100EC00002C007900D92A83EB107D9F725E1A8EE20
:100ED000B0E101C01D92AF32B207E1F717E0C0E503
:100EE000D7E000E006C021970109802FFE010E9493
:100EF0001847CF34D10780E00807A9F70E94482C93
:100F00000C941F4D0C94000008950895089581508D
:100F1000823108F05AC0E82FF0E08827ED56F84FEC
:100F20008F4F0C941847B307B707A507AB07AF0758
:100F3000E507BA07C007C407CA07CE07D207D80714
:100F4000DC07E507E007E607EA07809180008F7776
:100F5000809380000895809180008F7DF9CF8091EB
:100F60008000877FF5CF84B58F7784BD089584B5E1
:100F70008F7DFBCF8091B0008F778093B000089574
:100F80008091B0008F7DF9CF809190008F77809312
:100F900090000895809190008F7DF9CF809190000E
:100FA000877FF5CF8091A0008F778093A000089570
:100FB0008091A0008F7DF9CF8091A000877FF5CF31
:100FC000809120018F7780932001089580912001E6
:100FD0008F7DF9CF80912001877FF5CFCF93DF936D
:100FE000282F30E0F901E355F24F8491F901E95AD5
:100FF000F14FD491F901EF5EF14FC491CC23A1F0F0
:1010000081110E948707EC2FF0E0EE0FFF1FE950DF
:10101000F24FA591B491EC91ED2381E090E009F4B9
:1010200080E0DF91CF91089580E090E0FACF1F93A8
:10103000CF93DF93282F30E0F901E355F24F8491ED
:10104000F901E95AF14FD491F901EF5EF14FC491E2
:10105000CC23A9F0162F81110E948707EC2FF0E016
:10106000EE0FFF1FED56F24FA591B4918FB7F89494
:10107000EC91111108C0D095DE23DC938FBFDF9176
:10108000CF911F910895DE2BF8CFCF93DF9390E09F
:10109000FC01E95AF14F24918F5E914FFC0184913C
:1010A0008823C9F090E0880F991FFC01E758F24FA0
:1010B000A591B491FC01ED56F24FC591D491611107
:1010C0000DC09FB7F8948C91209582238C938881D2
:1010D000282328839FBFDF91CF910895623051F478
:1010E0009FB7F8943C91822F809583238C93E8815D
:1010F0002E2BEFCF8FB7F894EC912E2B2C938FBF24
:10110000EACF90917B00977F90937B008653806419
:1011100080937C0080917A00806480937A00809133
:101120007A0086FDFCCF8091780090917900089537
:101130008230910538F0880F991F880F991F059705
:101140000197F1F708953FB7F89480918C12909130
:101150008D12A0918E12B0918F1226B5A89B05C05A
:101160002F3F19F00196A11DB11D3FBFBA2FA92F26
:10117000982F8827BC01CD01620F711D811D911D23
:1011800042E0660F771F881F991F4A95D1F708958F
:101190008F929F92AF92BF92CF92DF92EF92FF9287
:1011A0004B015C010E94A3086B017C010E94A30813
:1011B0006C197D098E099F09683E73408105910570
:1011C000A8F321E0821A9108A108B10888EEC80EA0
:1011D00083E0D81EE11CF11C81149104A104B10428
:1011E00029F7FF90EF90DF90CF90BF90AF909F9046
:1011F0008F9008952FB7F89460918812709189129A
:1012000080918A1290918B122FBF08950895AF920A
:10121000BF92CF92DF92EF92FF920F931F93CF93E3
:10122000DF936C017B018B01040F151FEB015E0145
:10123000AE18BF08C017D10759F06991D601ED91DA
:10124000FC910190F081E02DC6011995892B79F769
:10125000C501DF91CF911F910F91FF90EF90DF902B
:10126000CF90BF90AF900895FC01538D448D252FF2
:1012700030E0842F90E0821B930B541710F0CF9630
:10128000089501970895FC01918D828D981761F062
:10129000A28DAE0FBF2FB11D5D968C91928D9F5F79
:1012A0009F73928F90E008958FEF9FEF0895FC0158
:1012B000918D828D981731F0828DE80FF11D858D0B
:1012C00090E008958FEF9FEF0895FC01918D228D9E
:1012D000892F90E0805C9F4F821B91098F73992723
:1012E000089588E093E10E94650921E0892B09F4C3
:1012F00020E0822F089585EA93E10E94650921E0AC
:10130000892B09F420E0822F0895FC01A48DA80FF9
:10131000B92FB11DA35ABF4F2C91848D90E0019637
:101320008F739927848FA689B7892C93A089B18957
:101330008C91837080648C93938D848D981306C0F8
:101340000288F389E02D80818F7D80830895EF925C
:10135000FF920F931F93CF93DF93EC0181E0888F6F
:101360009B8D8C8D98131AC0E889F989808185FF3F
:1013700015C09FB7F894EE89FF896083E889F989E1
:1013800080818370806480839FBF81E090E0DF91E3
:10139000CF911F910F91FF90EF900895F62E0B8D36
:1013A00010E00F5F1F4F0F731127E02E8C8D8E11F1
:1013B0000CC00FB607FCFACFE889F989808185FF58
:1013C000F5CFCE010E948509F1CFEB8DEC0FFD2FFB
:1013D000F11DE35AFF4FF0829FB7F8940B8FEA8913
:1013E000FB8980818062CFCF0F931F93CF93DF93D0
:1013F0008C01D0E0C0E0F801EC0FFD1F6491662382
:1014000041F085EA93E10E94A709892B11F021960A
:10141000F2CFCE01DF91CF911F910F910895CF931D
:10142000DF93EC01888D8823B9F0AA89BB89E8890C
:10143000F9898C9185FD03C0808186FD0DC00FB6B2
:1014400007FCF7CF8C9185FFF2CF808185FFEDCF30
:10145000CE010E948509E9CFDF91CF91089580E008
:1014600090E0892B29F00E947B0981110E940000E5
:1014700080E090E0892B29F00E94710981110E947F
:10148000000080E090E0892B49F080E090E0892B1B
:1014900029F00E94000081110E94000080E090E08D
:1014A000892B49F080E090E0892B29F00E94000010
:1014B00081110C9400000895DC0180E0615090F0EF
:1014C0009D919827E92FEF70F0E0EB5DF74F2491A5
:1014D000E92FE295EF70F0E0EB5CF74FE491822F9B
:1014E0008E27ECCF0895DC012C911196ED91FC91A3
:1014F000F8948181822B81839281322F30959323BE
:10150000928387E090E00197F1F7818183238183C3
:1015100083E290E00197F1F790817894EFECF0E0AE
:101520003197F1F7922381E009F480E00895FC01FE
:1015300090810180F281E02D292F209560FF14C059
:10154000F8948281822382838181892B8183A3E223
:10155000B0E01197F1F78281982B9283789487ED10
:1015600090E00197F1F70895F894828182238283B5
:101570008181892B8183AFEFB0E01197F1F78281F0
:10158000982B928378948FE090E0EBCFEF92FF92CC
:101590000F931F93CF93DF93EC01E62E08E010E04A
:1015A000FF24F39461E08E2D8F2109F460E0CE01D9
:1015B0000E94970AFF0C01501109A1F7F894E981E4
:1015C000FA8191818881809589238183E981FA81DB
:1015D000928188818095892382837894DF91CF914D
:1015E0001F910F91FF90EF900895EF92FF920F934C
:1015F0001F93CF93DF938C017B0165E50E94C60AA0
:10160000E70188E0E80EF11C6991C8010E94C60A52
:10161000CE15DF05C9F7DF91CF911F910F91FF9094
:10162000EF900895FC0190810180F281E02DF89403
:101630008181292F20958223818378943DE743E09F
:1016400050E0315029F1DA011197F1F780818923B7
:10165000C1F3F8948281822382838181892B8183E3
:101660007894ABE7B7E01197F1F7F8948181822382
:101670008183A3E1B1E01197F1F78081982381E0A4
:1016800009F080E07894E3E6F6E03197F1F7089509
:1016900080E00895FC01908190539A3008F090E02A
:1016A000818180532AE0929F800D11240895EF924A
:1016B000FF920F931F93CF93DF93EC01EC80FD809B
:1016C0006E157F050CF070C057FF04C0240F351F46
:1016D00050E040E08E819F81FA01E20FF31F8E17E8
:1016E0009F071CF49C01241B350B121613060CF0EB
:1016F0005BC0922F842F8695869586958E9DD0010E
:101700008F9DB00D11246A0F7B1FAF8DB8A1A60F5E
:10171000B71F477049F188E0841B482F682F70E09D
:10172000FB01E35EF74FE491281708F063C0621BEA
:1017300071092FEF30E002C0359527956A95E2F7E1
:10174000E2230130110539F0B0F10230110561F5E5
:101750008C91E82702C08C91E82BEC93941720F130
:101760002C813D81A20FB31FE92FE41BE83078F0F4
:101770000230110521F58E2F9C9190959C932C8120
:101780003D81A20FB31F88508830B0F7E770EE2379
:1017900059F0F0E0EB5EF74FE49101301105F9F0FC
:1017A00010F10230110519F1DF91CF911F910F91C6
:1017B000FF90EF900895E0958C91E823CECF81E0E3
:1017C0000115110509F480E081959E2F8C932C81E1
:1017D0003D81A20FB31F98509830C0F7D7CF8C919E
:1017E000E82BEC93E1CFE0958C91E823FACF8C9134
:1017F000E827F7CF0130110509F4ADCFE0F2023050
:10180000110509F4A5CFAE0DBF1DAECF0F931F93E9
:10181000CF93DF9377FF04C0260F371F70E060E09F
:10182000DC011496CD91DC91FB01E20FF31FCE1782
:10183000DF071CF49E01261B370B121613064CF50E
:10184000FA0157FD3796A3E0F595E795AA95E1F7DC
:10185000EC9FD001ED9FB00DFC9FB00D11246A0FDD
:101860007B1FDC015F96ED91FC91E60FF71F47703F
:10187000552781E090E001C0880F4A95EAF7482F8C
:101880000130110559F0A8F02E0F3F1F023011054D
:10189000E1F0DF91CF911F910F9108952E0F3F1F1F
:1018A000E217F307B1F38191DF011197842B8C9339
:1018B000F7CF80952E0F3F1FE217F30751F3919159
:1018C000DF01119798239C93F7CFE217F30709F3F1
:1018D0008191DF01119784278C93F7CF0F931F938A
:1018E000FA01DC0156964C9156974230E9F04330AC
:1018F000A1F1413061F514964D915C91DA01AE1B76
:10190000BF0BFD01E21BF30B77FD0BC0DC0116964C
:101910004D915C916417750724F4AB01BF010E94DF
:10192000060C1F910F91089514964D915C91DA0168
:10193000A61BB70BBD0161507109DC0116964D91D4
:101940005C91DA01AE1BBF0BFD01E21BF30B77FDCF
:10195000E8CFAF010E94570BE4CF16964D915C91F2
:10196000DA01A61BB70BBD0161507109CDCF0F93F2
:101970001F93FA01DC0156964C9156974230A9F01C
:10198000433091F1413019F514964D915C91DA0193
:10199000AE1BBF0BFD013197F7FD04C0AB01BF01CA
:1019A0000E94570B1F910F91089514964D915C91D1
:1019B000DA01A61BB70BBD01DC0116964D915C91B7
:1019C000DA01AE1BBF0BFD013197621B730BF7FDF4
:1019D000E9CFDC0116964D915C91E417F50714F7F9
:1019E000AF010E94060CDECF16964D915C91DA0194
:1019F000A61BB70BBD01621B730BCECFFC0177FD9D
:101A000064C080859185681779070CF05EC057FD2A
:101A10005CC082859385481759070CF056C08689AB
:101A20008230B1F0833029F1813041F48481958195
:101A3000841B950BAB01BC0161507109213031054C
:101A400009F108F443C02230310509F463C0089558
:101A500084819581DC01A61BB70BBD016150710922
:101A600086819781DC01A41BB50BAD014150510962
:101A7000E5CF86819781861B970BBA01AC01415057
:101A80005109DCCFCA0157FD0796A3E095958795CC
:101A9000AA95E1F7A481B5818A9F90018B9F300DB3
:101AA0009A9F300D1124620F731F078CF0A1E02D57
:101AB000E60FF71F4770552721E030E001C0220FE5
:101AC0004A95EAF78081822B80830895CA0157FDE9
:101AD000079633E0959587953A95E1F7A481B5810E
:101AE0008A9F90018B9F300D9A9F300D1124620FB9
:101AF000731F078CF0A1E02DE60FF71F47705527E5
:101B000081E090E001C0880F4A95EAF780959081C6
:101B10008923DACFCA0157FD079623E0959587956B
:101B20002A95E1F7A481B5818A9F90018B9F300DA2
:101B30009A9F300D1124620F731F078CF0A1E02DC6
:101B4000E60FF71F4770552721E030E001C0220F54
:101B50004A95EAF780818227B7CFCF93CFB7F89421
:101B600080913911811127C0E6E4FEE08491ECE810
:101B7000FEE09491E82FF0E0EE0FFF1FE758F24FE0
:101B8000A591B491EC91E92321F461E085E30E94F1
:101B9000170861E085E30E9445088CB580618CBD23
:101BA0008CB580648CBD61E084E30E94450861E0EF
:101BB00083E30E944508809139118F5F809339112A
:101BC000CFBFCF910895BF92CF92DF92EF92FF9255
:101BD0000F931F93CF93DF93EC0188819981892B19
:101BE00081F06EBD0DB407FEFDCF0EB5802FDF91E5
:101BF000CF911F910F91FF90EF90DF90CF90BF900A
:101C000008958885998511E0892B09F010E8BB2497
:101C1000B394862F812309F0B12CF62E2C813D81BF
:101C20004E815F8160E271EA87E090E00E94444566
:101C3000E22E00E0C22ED12CEE2019F0C6010E9447
:101C400098088A85982F977F09F044C08D858F3F2B
:101C500089F09F2D912381E009F480E08B1551F0EC
:101C6000EF85F8898F89992379F19081892B808379
:101C7000BB24B394E989FA898081998D892B80836B
:101C8000EE2019F0C6010E9498088E858F3F39F02A
:101C9000EB89FC898081988D892309F0012BE989E2
:101CA000FA899081898D809589238083888599859B
:101CB000892B09F067C0110F1111BECF8E858F3FA0
:101CC00009F094CF0F2D92CF908180958923808346
:101CD000B12CD0CF8C3099F58D858F3F49F0EF85B1
:101CE000F8898F899F2D912331F19081892B8083F1
:101CF000E989FA899081898D809589238083EE20F6
:101D000019F0C6010E949808E989FA898081998DA5
:101D1000892B8083EE2019F0C6010E9498088E85D9
:101D20008F3F21F2EB89FC898081988D892309F40A
:101D3000BDCF012BBBCF908180958923D8CFE98976
:101D4000FA898081998D892B8083EE2019F0C60154
:101D50000E9498088D858F3F49F0EF85F8898F891B
:101D60009F2D912359F09081892B8083E989FA89ED
:101D70009081898D809589238083D1CF90818095B2
:101D80008923F3CF169598CF0895FC0183858F3F63
:101D900019F061E00C94170808958EBD00000DB491
:101DA00007FEFDCF8EB508958CBD9DBD0895CF93E0
:101DB000DF93EC0188819981892B31F0EA81FB81E5
:101DC000808191810E94D40E8B858F3F29F060E045
:101DD000DF91CF910C941708DF91CF910895CF92A6
:101DE000DF92EF92FF920F931F93CF93DF938C01BB
:101DF000EB016A0179010E94D70E6881C8010E9437
:101E0000E30DE601EC0CFD1C6FEFC8010E94E30D31
:101E10008993CE15DF05C1F7C8010E94C50E81E088
:101E2000DF91CF911F910F91FF90EF90DF90CF90B6
:101E300008950895FC016370668B848195812681E5
:101E40003781613039F0633029F09187808733879B
:101E500022870895318720879387828708952F925C
:101E60003F924F925F926F927F928F929F92AF922A
:101E7000BF92CF92DF92EF92FF920F931F93CF9377
:101E8000DF93CDB7DEB76A970FB6F894DEBF0FBE0B
:101E9000CDBF9A8F898F7A8369834A01D22E1887A2
:101EA0000F833701BC2CDC0159962D913C915A9738
:101EB0002115310509F015C118968D919C9119973E
:101EC000681779070CF0D7C11A968D919C91481725
:101ED00059070CF0D0C14C2C512CB6E0CB9E600DB4
:101EE000711D11247C876B87161617060CF0C3C171
:101EF000EA2DF0E0FA87E98793E0EE0FFF1F9A954D
:101F0000E1F7F88BEF87CF01840F951F181619069C
:101F10000CF0B1C1A98DBA8D58968C91811104C075
:101F2000BFEABD1508F4D394A98DBA8DED91FC914B
:101F300011970284F385E02DCD011995B5E0DB9E64
:101F4000C0011124E981FA81FC83EB83312C212C1F
:101F50009C012B5E3C4F388F2F8B4A2D50E05E8BBF
:101F60004D8BEF89F88DE20DF31D44919E828D8299
:101F7000D12CC12C69817A81620D731D7A8B698B9A
:101F8000842F90E09C8B8B8BE98DFA8DA081B181A1
:101F900040FF82C0F1E0BF126FC0AF126DC01C964F
:101FA000ED91FC912F813885A4014C0D5D1D69894F
:101FB0007A89898D9A8D1995EB89FC89F595E79534
:101FC0004E2F5FEFC51AD50A6D817E818D899E895E
:101FD000680F791F7E836D8398E0C916D10481F65E
:101FE000AFEF2A1A3A0AEB81FC81E40DF51DFC8360
:101FF000EB83F5E02F16310409F0B3CF2F8138853C
:1020000026153705B9F0A98DBA8DED91FC91B1E097
:10201000BB1257C0AB1255C069817A816B5F7F4F8D
:102020000088F189E02D830128E030E0A401898D4A
:102030009A8D1995A98DBA8DED91FC91119706880D
:10204000F789E02DCD016A960FB6F894DEBF0FBE7A
:10205000CDBFDF91CF911F910F91FF90EF90DF9057
:10206000CF90BF90AF909F908F907F906F905F9038
:102070004F903F902F9019941E96ED91FC91EF8018
:10208000F88409851A8592014D815E816B817C817E
:10209000898D9A8D199590CF2F8138852615370512
:1020A00009F48ACF31E0B31207C0A31205C01C9611
:1020B000ED91FC91930178CF1E96ED91FC91730107
:1020C000E0CF6B857C85641975090684F785E02D62
:1020D00073010F8518899201A401898D9A8D199534
:1020E000A9CFF90134969491329745915491D91A18
:1020F000B7E0DB9E400D511D1124F901259134916B
:102100003C8B2B8BFA0125903490FA013296749017
:1021100031963491398B329664903196449041E0F7
:102120004C1518F04A1508F07FC0662D062C000CDF
:10213000770B7C836B83842D042C000C990B9E837E
:102140008D83A98DBA8DED91FC9111970284F38551
:10215000E02DCD011995512CD12CC12CEA2DF0E0A8
:10216000FA87E9872B2D30E03C872B87A401440DAB
:10217000511D47FC5A95588F4F8B69817A81660DA6
:10218000711D67FC7A957E876D877989C71608F07F
:1021900051CF2C2D30E04D815E81420F531FA98518
:1021A000BA854A9FC0014B9F900D5A9F900D1124F4
:1021B000FC01E80DF91DF88BEF87852D612C4F8907
:1021C000588D420F531F5E8B4D8B671408F050C023
:1021D00044244394480E877041F4C1010196EB8971
:1021E000FC89E20DF31DD4901C01D7FE19C0A98D06
:1021F000BA8DED91FC91662D70E0B1E0BB1219C073
:10220000AB1217C02D853E85620F731F0484F585C0
:10221000E02D2F8138854D895E89898D9A8D19959C
:10222000DD0C6394842DD1CF1E821D821C821B8203
:1022300088CF4B815C81640F751FAB85BC856A9F1D
:10224000C0016B9F900D7A9F900D112469817A8156
:10225000680F791F0684F785E02DEF80F8840985E3
:102260001A859D014F855889898D9A8D1995D8CFEA
:10227000570CC3948ACF6A960FB6F894DEBF0FBE90
:10228000CDBFDF91CF911F910F91FF90EF90DF9025
:10229000CF90BF90AF909F908F907F906F905F9006
:1022A0004F903F902F9008958F929F92AF92CF9230
:1022B000EF92FF920F931F93CF93DF93EC01262FA2
:1022C000898D9A8D009709F051C06A30D1F41D862E
:1022D0001C868D8948E0849F900111248E859F85FE
:1022E000820F931F9F878E8781E090E0DF91CF91CF
:1022F0001F910F91FF90EF90CF90AF909F908F9094
:1023000008956D3089F3CC88AD888F898823C1F01A
:102310008C859D8536E0C39E800D911D11244885D6
:1023200059854817590764F44E855F851D861C86BC
:1023300038E0A39EC0011124840F951F9F878E87CC
:10234000EA88FB88088919894E855F856C857D85BB
:10235000CE010E942F0F2C898C859D8546E0249FFD
:10236000800D911D11249D878C87BECF6A3069F442
:102370001D861C86FC013896E4912D898E859F85EB
:10238000E29F800D911D1124ADCF6D3009F4ACCFCB
:10239000FC0134963491631708F4A6CF3296E49189
:1023A000E61708F4A1CFFC01329685909490462F51
:1023B000431B342F47E0349F800C911C1124F401FF
:1023C000329634913196E4913323A9F1EE2399F1B9
:1023D000CC88F4013596E491AD884F89442301F10E
:1023E0000E2E000CFF0BE30FF11DCE9EA001CF9E21
:1023F000500D11246C857D85460F571F68857985A2
:10240000641775076CF44E855F851D861C86FC017C
:102410003896E491AE9E400D511D11245F874E8782
:10242000EA88FB88088919894E855F856C857D85DA
:10243000CE010E942F0FF4013496E4912C898C85F3
:102440009D85E29F800D911D11248DCF6F927F920B
:102450008F929F92AF92BF92CF92DF92EF92FF92B4
:102460000F931F93CF93DF93EC016B015A01390156
:102470004801E881F9810284F385E02D1995E8810E
:10248000F9810288F389E02D87019301A501B60146
:10249000CE011995A501480D591D41505109E881FA
:1024A000F9810288F389E02D9301B601CE011995D7
:1024B000E881F9810088F189E02D9401A501B60138
:1024C000CE011995C60CD71CB60161507109E8817F
:1024D000F9810088F189E02D9401A501CE011995BB
:1024E000E881F9810688F789E02DCE01DF91CF914F
:1024F0001F910F91FF90EF90DF90CF90BF90AF9022
:102500009F908F907F906F9019946F927F928F928F
:102510009F92AF92BF92CF92DF92EF92FF920F9372
:102520001F93CF93DF935C01EB016A0149013801EE
:102530008701DC01ED91FC916217730719F56416B0
:1025400075062CF0962D872D3A01C92ED82E9601AE
:10255000261937092F5F3F4F048CF58DE02DA3011D
:10256000BE01C5011995DF91CF911F910F91FF9089
:10257000EF90DF90CF90BF90AF909F908F907F9023
:102580006F9008954615570591F42617370724F0E4
:10259000892D4B01C22FD82F9E01281939092F5F91
:1025A0003F4F068CF78DE02DA601B401DACF0284EF
:1025B000F385E02D1995D501ED91FC910488F589FD
:1025C000E02D83019401A601BE01C5011995D50135
:1025D000ED91FC910688F789E02DC501DF91CF913F
:1025E0001F910F91FF90EF90DF90CF90BF90AF9031
:1025F0009F908F907F906F901994EF92FF920F931E
:102600001F93DC011A960D911C911B9718962D9122
:102610003C911997ED91FC9100A0F1A1E02D7B0177
:1026200050E040E070E060E019951F910F91FF903D
:10263000EF9008954F925F926F927F928F929F9248
:10264000AF92BF92CF92DF92EF92FF920F931F93C0
:10265000CF93DF936C012B015A0139014801DC0152
:10266000ED91FC910284F385E02D1995E201640C53
:10267000751CD601ED91FC91C615D7055CF4008858
:10268000F189E02D87019401A501BE01C6011995CC
:102690002196EFCF0688F789E02DC601DF91CF9113
:1026A0001F910F91FF90EF90DF90CF90BF90AF9070
:1026B0009F908F907F906F905F904F9019948F9222
:1026C0009F92AF92BF92CF92DF92EF92FF920F93C1
:1026D0001F93CF93DF93EC015B014A016901E8810D
:1026E000F9810284F385E02D199595012C0D3D1D8E
:1026F00021503109E881F9810488F589E02D7801BC
:102700008401A401B501CE011995E881F9810688FB
:10271000F789E02DCE01DF91CF911F910F91FF90AE
:10272000EF90DF90CF90BF90AF909F908F901994D3
:102730008F929F92AF92BF92CF92DF92EF92FF92D1
:102740000F931F93CF93DF93EC015B014A01690163
:102750007801E881F9810284F385E02D1995C80C90
:10276000D91C860101501109E881F9810488F58995
:10277000E02D9501A401B501CE011995E881F981FB
:102780000688F789E02DCE01DF91CF911F910F913F
:10279000FF90EF90DF90CF90BF90AF909F908F9081
:1027A0001994EF92FF920F931F93DC01ED91FC912E
:1027B00000A0F1A1E02D19951F910F91FF90EF90CE
:1027C00008950F931F93DC01ED91FC91068CF78D1A
:1027D000E02D19951F910F9108950F931F93DC0120
:1027E000ED91FC91048CF58DE02D19951F910F91C1
:1027F0000895DC01ED91FC910084F185E02D1994A0
:102800003F924F925F926F927F928F929F92AF9280
:10281000BF92CF92DF92EF92FF920F931F93CF93CD
:10282000DF935C017B014A016901390187E0680E91
:10283000711C93E0759467949A95E1F72B01400E13
:10284000511E10E000E0312CD0E0C0E0CE018770D6
:102850009927330C892B59F4FE0183E0F595E79510
:102860008A95E1F7E00FF11FE80DF91D349037FE6E
:102870000AC021E030E0A701B5016C0F7D1F89EE91
:1028800094E10E94F9132196CC16DD06F9F68FEF3C
:10289000E81AF80A060D171DE414F504A9F6DF91ED
:1028A000CF911F910F91FF90EF90DF90CF90BF904D
:1028B000AF909F908F907F906F905F904F903F90E0
:1028C00008952F923F924F925F926F927F928F92D4
:1028D0009F92AF92BF92CF92DF92EF92FF920F93AF
:1028E0001F93CF93DF9300D000D0CDB7DEB73C016C
:1028F0006A013E832D83FC82EB825801A41AB50A3B
:10290000B7FE03C0B194A194B1088D809E80861A51
:10291000970A97FE03C09194819491088A149B04AE
:102920005CF0902F812F0D811E819D838E839C2DC5
:102930008D2D6B01692F782F0C151D055CF09D8185
:102940008E817E836D83692F782F902F812F860152
:10295000C92ED82E1601201A310A2B012D813E8155
:10296000421A530A57FE03C0519441945108710111
:1029700037FE03C03FEFE31AF30AF594E7948D8125
:102980009E81861797075CF5A1E0B0E0BA83A98322
:10299000C016D1064CF1D301ED91FC910484F5856C
:1029A000E02D2B813C81A8016D817E818A149B04DE
:1029B0001CF04D815E81B801C3011995E418F5083A
:1029C000F7FE0AC02D813E8189819A81280F391F27
:1029D0003E832D83E20CF31C0F5F1F4FD9CF2FEFE7
:1029E0003FEF3A832983D4CF26960FB6F894DEBF03
:1029F0000FBECDBFDF91CF911F910F91FF90EF9050
:102A0000DF90CF90BF90AF909F908F907F906F900E
:102A10005F904F903F902F90089508952091161148
:102A2000260F3327331F21323105ECF42091DE12BB
:102A3000FC0190E080E0243069F082E00895A091EC
:102A400016112191AC014A505F4EA40FB52FB11D54
:102A50002C930196861798F380911611680F609356
:102A6000161180E0089581E008951092DE1281E051
:102A70008093DD121092B81261E084E10E94170881
:102A800061E085E10E941708E9EBF0E080818E7F2C
:102A9000808380818D7F808388E48093B80085E483
:102AA0008093BC0008951092971210929612109283
:102AB000E512109207130E94351584E897E0909371
:102AC00093128093921285E897E0909391128093ED
:102AD00090120895CF93DF9391E09093F51088239F
:102AE000B9F0C091B800D091BA008091BC008A7B47
:102AF0008093BC0060E084E10E94170860E085E1FB
:102B00000E9417080E943515D093BA00C093B800F0
:102B1000DF91CF9108958F929F92AF92BF92CF9203
:102B2000DF92EF92FF920F931F93CF93DF93D09199
:102B30000713D13208F0D7C0182FC09106130E9496
:102B4000A3086B017C018091DE1281116BC082E0D1
:102B50008093DE121093DD128FEF8093DC121092BF
:102B6000DB12D093DA12A6EEB2E1EAEBF2E180E0FA
:102B7000D81391C01092B9128091B912CC0FC82B02
:102B8000C093B9128091B812813009F088C01092B8
:102B9000B8120E94A3086B017C018091B912809346
:102BA000BB008091E0129091E112A091E212B091ED
:102BB000E312892B8A2B8B2BA1F00E94A308009192
:102BC000E0121091E1122091E2123091E3126C199F
:102BD0007D098E099F09061717072807390708F48A
:102BE00042C08091BC0083FDD8CF85EC8093BC00AF
:102BF0000E94A3086B017C018091DE12823009F4EF
:102C000050C08091DC128F3F09F46FC08091DC12BC
:102C1000803209F46CC08091DC12803309F469C001
:102C200084E026C08091E0129091E112A091E2121E
:102C3000B091E312892B8A2B8B2B09F484CF0E944D
:102C4000A3088090E0129090E112A090E212B09060
:102C5000E3126C197D098E099F0986169706A8064E
:102C6000B90608F070CF8091DF120E946A1585E0E6
:102C70001092E512109207131092E412DF91CF9197
:102C80001F910F91FF90EF90DF90CF90BF90AF908A
:102C90009F908F9008959D9191938F5F69CF85EE5E
:102CA000A5CF8091E0129091E112A091E212B09133
:102CB000E312892B8A2B8B2B09F49ECF0E94A30849
:102CC0000091E0121091E1122091E2123091E31292
:102CD0006C197D098E099F09061717072807390700
:102CE00008F08ACFC0CF81E0C3CF80E0C1CF82E0BF
:102CF000BFCF83E0BDCFE091971280919612E81785
:102D000030F4F0E0E856FD4E808190E008958FEFBA
:102D10009FEF089590919712809196122FEF3FEFB9
:102D2000981748F4E92FF0E0E856FD4E208130E096
:102D30009F5F90939712C901089580919612909188
:102D40009712891B990B0895CF92DF92EF92FF9211
:102D50000F931F93CF93DF937C01CB018A012091C6
:102D6000E412222389F0EB016B01C40ED51ECC15B1
:102D7000DD0569F06991D701ED91FC910190F08139
:102D8000E02DC7011995F3CF642F0E940E15C801DD
:102D9000DF91CF911F910F91FF90EF90DF90CF9037
:102DA0000895CF93DF931F92CDB7DEB7698320914B
:102DB000E4122223F9F020910713203258F021E089
:102DC00030E0FC013383228390E080E00F90DF91BC
:102DD000CF9108958091E512E82FF0E0EA51FD4E81
:102DE000998190838F5F8093E5128093071381E030
:102DF00090E0ECCF61E0CE0101960E940E15F7CF76
:102E000081E00C948B15EF92FF920F931F93CF9359
:102E1000DF937C01C62F80910615909107150097CE
:102E200009F459C020910A1531E03093E41220933F
:102E300006131092E51210920713DC01ED91FC913C
:102E40000190F081E02D60E019958701EE24E39474
:102E5000F12CD1E0C1508091061590910715CF3F1C
:102E600091F1B0E2EB16F104D8F00E9400178091C6
:102E700006159091071520910A15D093E41220931E
:102E800006131092E51210920713DC01ED91FC91EC
:102E90000190F081E02D60E01995EE24E394F12C8F
:102EA0008091061590910715F8016491DC01ED9170
:102EB000FC910190F081E02D1995BFEFEB1AFB0A10
:102EC0000F5F1F4FC7CFDF91CF911F910F91FF90E1
:102ED000EF900C940017E0911615F0911715908162
:102EE00080911C158095892380838701C15008F447
:102EF00038C0F80184912091041530910515232BD9
:102F000029F00E94CD0E0F5F1F4FF0CF28E030E078
:102F100040E8E0911215F091131590911A15582F71
:102F20005423D9F05081952B9083E0911415F091A2
:102F30001515908150911B15952B9083E0911415D8
:102F4000F0911515508190911B15909595239083C4
:102F5000469521503109E9F6D6CF508190959523B9
:102F6000E3CFDF91CF911F910F91FF90EF900895E4
:102F70001F93CF93DF93EC018D8D9E8D009721F1F0
:102F8000162F29A131E03093E412209306131092FA
:102F9000E51210920713DC01ED91FC910190F08194
:102FA000E02D60E019958D8D9E8DDC01ED91FC91F9
:102FB0000190F081E02D612F19958D8D9E8DDF910F
:102FC000CF911F910C940017ADA5BEA59C918BA924
:102FD000809589238C938B8D9C8D892B31F0862F46
:102FE000DF91CF911F910C94CD0E28E030E080E866
:102FF000A9A5BAA599A9462F4823C1F04C91942BB5
:103000009C93ABA5BCA59C914AA9942B9C93ABA582
:10301000BCA54C919AA9909594239C938695215098
:10302000310931F7DF91CF911F9108954C9190951F
:103030009423E6CFDF92EF92FF920F931F93CF93EB
:10304000DF938091061590910715892B09F4A5C08F
:1030500020911E1530911F1540912015509121157A
:1030600060E074E284EF90E00E9444452051310911
:103070004109510956954795379527952093B800F2
:1030800064E083EF9DE00E9403178091ED1490911E
:10309000EE148034910509F097C060E289EE94E166
:1030A0000E94B8176091ED14615E89EE94E10E9470
:1030B000B8172091EF143091F014C901079697FDCD
:1030C000079633E0959587953A95E1F72091ED14B1
:1030D0003091EE14829F8001839F100D929F100DFE
:1030E0001124C0910815D091091580910615909171
:1030F00007150C0F1D1F009709F498C020910A15A1
:1031000031E03093E412209306131092E5121092EE
:103110000713DC01ED91FC910190F081E02D60E45A
:103120001995EE24E394F12CDD24D39480910615B7
:10313000909107150C171D0709F44FC0B0E2EB166C
:10314000F104D8F00E9400178091061590910715A0
:1031500020910A15D092E412209306131092E512E2
:1031600010920713DC01ED91FC910190F081E02DAC
:1031700060E41995EE24E394F12C8091061590916A
:1031800007156991DC01ED91FC910190F081E02D32
:103190001995BFEFEB1AFB0AC9CF809104159091E6
:1031A0000515892B31F080912715909128150E94E3
:1031B000D40EE0911815F0911915908180911D158C
:1031C0008095892380835CCF60E089EE94E10E9442
:1031D000B8176091ED14615068CF0E94001780917C
:1031E000061590910715892B09F461C020912215CD
:1031F00030912315409124155091251560E074E21B
:1032000084EF90E00E944445205131094109510961
:1032100056954795379527952093B800DF91CF9124
:103220001F910F91FF90EF90DF900895E091161598
:10323000F0911715808190911C15892B80830C17B4
:103240001D0769F289912091041530910515232BF2
:1032500019F00E94CD0EF3CF28E030E040E8E09175
:103260001215F091131590911A15582F5423D9F077
:103270005081952B9083E0911415F0911515908154
:1032800050911B15952B9083E0911415F091151515
:10329000508190911B1590959523908346952150D0
:1032A0003109E9F6CCCF508190959523E3CFE09199
:1032B0001815F0911915808190911D15892B808327
:1032C000ADCF1F93CF93DF93EC01162F8D8D9E8D85
:1032D000892BB1F12DA93EA94FA958AD60E074E248
:1032E00084EF90E00E944445205131094109510981
:1032F00056954795379527952093B80066EA1111A2
:1033000067EACE010E94B8178D8D9E8D892B41F101
:1033100029AD3AAD4BAD5CAD60E074E284EF90E076
:103320000E9444452051310941095109569547955C
:10333000379527952093B800DF91CF911F9108957D
:103340008B8D9C8D892B21F08EAD9FAD0E94D40E6C
:10335000EFA5F8A990818CA9809589238083CECF91
:10336000EFA5F8A980819CA9892B8083E5CFCF9315
:10337000DF93EC018B818823A9F089819A812881D0
:1033800031E03093E412209306131092E51210926C
:1033900007130E94001791E0811190E0892FDF91BF
:1033A000CF9108950E94531581E08B83CE010E9436
:1033B000B719982F8111E1CFF1CF90E080E0089507
:1033C00082E00E94EE07019759F40E94A3086093DF
:1033D000ED107093EE108093EF109093F01008951D
:1033E0000E94A3086093F1107093F2108093F31081
:1033F0009093F4108091F1109091F210A091F3103D
:10340000B091F4104091ED105091EE106091EF10DA
:103410007091F010841B950BA60BB70B8093E910ED
:103420009093EA10A093EB10B093EC1081E080939E
:10343000E81008951F93CF93DF93DC011496ED916C
:10344000FC91E417F50710F490E01FC0122FEA0179
:10345000FC0181819281208131E03093E41220933C
:1034600006131092E51210920713DC01ED91FC9106
:103470000280F381E02D1995C817D90729F7812F0C
:103480000E948B1591E08111DFCF892FDF91CF91C1
:103490001F9108950F931F93CF93DF931F921F9255
:1034A000CDB7DEB7FC014A8380819181009781F01E
:1034B000698321E042E050E0BE016F5F7F4F0E94D0
:1034C0001A1A0F900F90DF91CF911F910F910895CD
:1034D0006F77698302811381C8010E94D70E6981C9
:1034E000C8010E94E30D6A81C8010E94E30DC80172
:1034F0000E94C50EE6CF2F923F924F925F926F923D
:103500007F928F929F92AF92BF92CF92DF92EF9273
:10351000FF920F931F93CF93DF935C011B016A010E
:10352000F12CE12CD50114968D919C9186010E19F8
:103530001F098017910708F48C01F501D0810E94C2
:10354000A3082B013C018091DE12811172C0C02FB3
:10355000013208F0C0E2F1E0F093DE1221E0C60192
:10356000801B910BE816F90608F420E02093DD1289
:103570008FEF8093DC121092DB128C0F8093DA12A3
:10358000A1E0A093B9128091B912DD0FD82BD0938E
:10359000B9128091B812813009F090C01092B8121F
:1035A0000E94A3082B013C018091B9128093BB00BB
:1035B0008091E0129091E112A091E212B091E31299
:1035C000892B8A2B8B2BA1F00E94A3082091E0125B
:1035D0003091E1124091E2125091E31264197509A1
:1035E00086099709261737074807590708F442C084
:1035F0008091BC0083FDD8CFB5ECB093BC000E9495
:10360000A3082B013C018091DE12813009F45AC0DD
:103610008091DB128C1710F4C091DB12AAEBB2E19F
:10362000E8E9F2E180E08C1751F19D9191938F5F71
:10363000FACF8091E0129091E112A091E212B09144
:10364000E312892B8A2B8B2B09F47DCF0E94A308D0
:103650002091E0123091E1124091E2125091E31278
:103660006419750986099709261737074807590706
:1036700008F069CF8091DF120E946A15C0E01092B5
:103680009712C0939612C017110609F057C0410156
:103690008E0C9F1CE401CE018819990980179107AF
:1036A00098F5D50111968D919C91DC01ED91FC91DD
:1036B0000284F385E02D19958993EDCFE5EEE09333
:1036C000BC009DCF8091E0129091E112A091E21296
:1036D000B091E312892B8A2B8B2B09F494CF0E9493
:1036E000A3082091E0123091E1124091E212509132
:1036F000E3126419750986099709261737074807E1
:10370000590708F080CFB6CFE00EF11EEC14FD048F
:1037100008F408CF81E0DF91CF911F910F91FF90C6
:10372000EF90DF90CF90BF90AF909F908F907F9061
:103730006F905F904F903F902F90089580E0EBCF77
:10374000CF93DF931F921F92CDB7DEB78FE08A83AE
:1037500021E041E050E0BE016E5F7F4F8091941206
:10376000909195120E941A1A41E050E0BE016F5FDD
:103770007F4F80919412909195120E947B1A8981BB
:103780000F900F90DF91CF910895EF92FF920F93DA
:103790001F93CF93DF93EC018A01790120E041E090
:1037A00050E00E941A1A882359F0A701B801CE01EF
:1037B000DF91CF911F910F91FF90EF900C947B1AA6
:1037C00080E0DF91CF911F910F91FF90EF900895CE
:1037D000CF93DF9300D0CDB7DEB7FC01808191811C
:1037E000698323E030E0AE014F5F5F4FBA0100977D
:1037F000A1F00E94C51B29816A8170E090E080E001
:10380000982F872F762F6627822B2B81622B0F9084
:103810000F900F90DF91CF910895828193810E9444
:10382000EF0EE9CF4F925F926F927F928F929F92AD
:10383000AF92BF92CF92DF92EF92FF92CF93DF933E
:10384000EC0199AD977009F493C06AEFCE010E9424
:10385000E81B2B013C0184E07594679457944794CE
:103860008A95D1F78F88988CC301B20128E030E0A7
:1038700040E050E00E941245B12CA12CD501C401BA
:10388000880F991FAA1FBB1F281B390B4A0B5B0B04
:10389000A98DBA8D0E943C456B017C01C301B20128
:1038A00020E130E040E050E00E941245CA01B90139
:1038B000681979098A099B099B01AC010E94E846B5
:1038C0009B01AC017CE055954795379527957A95F6
:1038D000D1F7AB8DBC8D0E943C454B015C01C7010B
:1038E000B60120E038E040E050E00E941245690156
:1038F0007A01C501B40120E030E440E050E00E94CC
:1039000012452C0D3D1D4E1D5F1D8B899C89AD8977
:10391000BE89280F391F4A1F5B1F2F87388B498BA1
:103920005A8BA5E0B0E00E94314560587F4F8F4F21
:103930009F4F20E031E040E050E00E941245CA0174
:10394000B9010E94DC4320E030E048EC52E40E94E0
:10395000E245DF91CF91FF90EF90DF90CF90BF9045
:10396000AF909F908F907F906F905F904F90089551
:1039700060E070E080EC9FE7ECCF2F923F924F9297
:103980005F926F927F928F929F92AF92BF92CF92EF
:10399000DF92EF92FF920F931F93CF93DF93CDB7F8
:1039A000DEB76D970FB6F894DEBF0FBECDBF1C011A
:1039B0000E94121C67EFC1010E94E81B698F7A8F79
:1039C0008B8F9C8FF10187859089A189B2896C01C9
:1039D0007D01FF0CCC08DC2C76019C01AD016C2D27
:1039E0007C2D8C2D9C2D345F41405109610971095A
:1039F0008109910929873A874B875C873B014C01F4
:103A000059016A017B018C010E942747422E3D87A4
:103A10004E875F87688B798B8A8B9F8BD1019096BD
:103A20003C9190975F962C91932F990F990B492F6A
:103A3000592F692F792F892F0E9427470CE00E9468
:103A40005648288F3D8F49835B8B6C8B7D8B582E1E
:103A50009E8BF10132A121A1932F990F990BA42CD8
:103A6000BD84CE84DF84E888F9880A891F89492FBC
:103A7000592F692F792F892F0E942747F22E032F64
:103A8000142FB52FF62FE72FD82EE92EA0E00E9495
:103A90009E4884F421503F4F4F4F5F4F6F4F7F4FF1
:103AA0008F4F9F4FF22E032F142FB52FF62FE72F96
:103AB000D82EE92E2F2D302F412F5B2F6F2F7E2FE9
:103AC0008D2D9E2D08E00E946F48A88CBD8CC9806A
:103AD000DB88EC88FD88052D1E890E948C48705873
:103AE0008F4F9F4FD1015D96ED91FC915F01D12CDD
:103AF000C12CE12CF12C8701E983BA82CB82DC82D4
:103B0000ED82FE820F831887C12CD12CE12CF12C81
:103B100000E010E00E942747122F3B8B4983B52F0E
:103B2000F62FE72FF82E092FA0E00E949E4884F47C
:103B300021503109410951096E4F7F4F8F4F9F4FDF
:103B4000122F3B8B4983B52FF62FE72FF82E092F25
:103B5000212F3B8949815B2F6F2F7E2F8F2D902F37
:103B600001E20E946F482D8F532E49835B8B6C8B33
:103B70007D8B8E8B988FA0E00E949E4809F4D2C165
:103B8000D10198963C91989797962C91932F990FE5
:103B9000990BA42CBD84CE84DF84E888F9880A8937
:103BA0001F89492F592F692F792F892F0E94274765
:103BB0002D873E87442E5F87688B798B8A8B9F8BFE
:103BC000F10136A125A1932F990F990BA984BA84ED
:103BD000CB84DC8473018401492F592F692F792FFD
:103BE000892F0E94274701E10E945648AD84BE8478
:103BF000C42CDF84E888F9880A891F890E948C48D0
:103C000059016A017B01482E192F498D5A8D6B8D00
:103C10007C8D34E075956795579547953A95D1F722
:103C200080E090E0A0E1B0E0841B950BA60BB70B01
:103C30003C014D01990C6608762C43019C01AD01B5
:103C4000662D762D862D962D0FE10E945648722EF8
:103C5000832E942E652EB62FA72F8A879B87F1017E
:103C600034A123A1932F990F990B492F592F692F15
:103C7000792F892F03E20E945648042D0E948C4818
:103C800059016A017B018C01272D382D492D562DB4
:103C90006B2F7A2F8A859B850E949548E5E3AE2E8F
:103CA000FCE0BF2EC12CD12CE12CF12C00E010E067
:103CB0000E942747AD8CB52CC980DB88EC88FD8835
:103CC0000E89188D0E948147298B388B2A013B0170
:103CD0004C01F22E032F142FB52DF62FE72DD82EE1
:103CE000E92CA0E00E949E4884F42150304E4F4FB2
:103CF0005F4F6F4F7F4F8F4F9F4FF22E032F142F29
:103D0000B52FF62FE72FD82EE92E2F2D302F412F4C
:103D10005B2F6F2F7E2F8D2D9E2D0DE00E946F4803
:103D200029873A874B875C8769837D878E879F8742
:103D3000D1019E963C919E979D962C91932F990F21
:103D4000990BA984BA846A017B01082F1F85492F2A
:103D5000592F692F792F892F0E9427470E942747C3
:103D6000F22E032F142FB52FF62FE72FD82EE92E82
:103D7000A0E00E949E4884F42150310941095E4F21
:103D80006F4F7F4F8F4F9F4FF22E032F142FB52F62
:103D9000F62FE72FD82EE92E2F2D302F412F5B2F16
:103DA0006F2F7E2F8D2D9E2D09E10E946F48A988CF
:103DB000B8886201730184010E948C4829873A8780
:103DC0004B875C8769837D878E879F87F10134A548
:103DD00023A5932F990F990B492F592F692F792FCD
:103DE000892F0E942747122F398B488BB52FF62F2A
:103DF000E72FF82E092FA0E00E949E4884F421505E
:103E00003109484F5F4F6F4F7F4F8F4F9F4F122F9A
:103E1000398B488BB52FF62FE72FF82E092F212F3E
:103E2000398948895B2F6F2F7E2F8F2D902F03E1CB
:103E30000E946F4859016A017B018C0129853A85EE
:103E40004B855C8569817D858E859F850E948C4828
:103E5000122F39874983B52FF62FE72FF82E092F18
:103E6000A0E00E949E4884F421503F4F4F4F5F4F87
:103E70006F4F7F4F8F4F9F4F122F39874983B52F39
:103E8000F62FE72FF82E092F212F398549815B2F37
:103E90006F2F7E2F8F2D902F08E00E946F4829836F
:103EA000F32F6A017B01E82F192FD10199968D918B
:103EB0009C91092E000CAA0BBB0B4C015D01BB0CA5
:103EC0008808982C54019C01AD01682D782D882D0F
:103ED000982D04E00E945648A980BF2E0E2F0E9404
:103EE0008C480E948A4620E030E040E85BE30E9474
:103EF0003B446D960FB6F894DEBF0FBECDBFDF9189
:103F0000CF911F910F91FF90EF90DF90CF90BF90D6
:103F1000AF909F908F907F906F905F904F903F9069
:103F20002F90089560E070E0CB01E3CFCF93DF9353
:103F30001F921F92CDB7DEB7FC018081918169830A
:103F400022E030E0AE014F5F5F4FBA01009761F0B1
:103F50000E94C51B89819A819827892798270F90ED
:103F60000F90DF91CF910895828193810E94EF0E8F
:103F7000F1CF4F925F926F927F928F929F92AF920A
:103F8000BF92CF92DF92EF92FF92CF93DF9300D058
:103F900000D0CDB7DEB79E838D830E94121C6DEFDB
:103FA0008D819E810E94961FED81FE81878490887D
:103FB000A188B288FCE29F1AF1E0AF0AB108B0E034
:103FC000A0E06C017D013EE0CC0CDD1CEE1CFF1C72
:103FD0003A95D1F7ED81FE8183A994A9092E000CB1
:103FE000AA0BBB0B44E1880F991FAA1FBB1F4A9560
:103FF000D1F7C81AD90AEA0AFB0AA5A9B6A9A501E8
:1040000094010E943C45C61AD70AE80AF90AC7017A
:10401000B601705C8F4F9F4F412C50E8552E612C9C
:10402000712CA30192010E94124529833A834B838C
:104030005C83ED81FE81A2A9B0E0A50194010E94FC
:10404000314520E038E040E050E00E94124569012F
:104050007A01F0E8DF0EE11CF11CED81FE81A7A9D9
:104060000A2E000CBB0BA50194010E943C45812C3B
:10407000E4E09E2EA12CB12CA50194010E941245D2
:10408000CA01B901A70196010E94E846A501940161
:104090000E941245405E5F4FED81FE81A0A9B1A94B
:1040A0000E943C45705E8F4F9F4F20E030E440E01F
:1040B00050E00E94124569817A818B819C810E9427
:1040C000E8466B017C01A30192010E941245CA01DE
:1040D000B9010E94E8469B01AC01F7E05595479570
:1040E00037952795FA95D1F7ED81FE81A7A5B0E028
:1040F0000E94314520E130E040E050E00E9412454E
:10410000C21AD30AE40AF50AF7FE03C0C12CD12C67
:104110007601C701B601613071058105F9E19F079C
:1041200024F060E070E080E099E12CE095958795BF
:10413000779567952A95D1F70E94DA4320E030E021
:1041400040E85AE30E943B4426960FB6F894DEBF3F
:104150000FBECDBFDF91CF91FF90EF90DF90CF905A
:10416000BF90AF909F908F907F906F905F904F9097
:1041700008950E94961F9827892798270895CF931E
:10418000DF931F92CDB7DEB7FC01808191816983F7
:1041900021E030E0AE014F5F5F4FBA01009739F088
:1041A0000E94C51B89810F90DF91CF910895828174
:1041B00093810E94EF0EF6CFFF920F931F93CF9340
:1041C000DF93EC01F62E0A811B810115110549F5DB
:1041D00088819981009711F00E94464986E090E01D
:1041E0000E94AA488C01FC01F0828DED94E192833B
:1041F0008183138280E290E095838483198308830E
:104200000E94531581E0F8018383C8010E94B71909
:1042100081111EC080E0DF91CF911F910F91FF901F
:104220000895F80183858F3F41F061E00E944508C1
:1042300061E0F80183850E941708F801808191816F
:10424000892B09F4FDC00E94AD0D81E0F801838F38
:1042500060EDCE010E94BF2090E0B0E0A0E08B872F
:104260009C87AD87BE8780369105A105B10591F683
:1042700046EB60EECE010E944A1A6AE070E080E0F0
:1042800090E00E94C80863EFCE010E94BF2080FD2D
:10429000F4CF68E8CE010E94B920988F8F8B6AE82E
:1042A000CE010E94B9209A8F898F6CE8CE010E94BE
:1042B000B9209C8F8B8F6EE8CE010E94B9209E8F13
:1042C0008D8F60E9CE010E94B92098A38F8F62E99B
:1042D000CE010E94B9209AA389A364E9CE010E946D
:1042E000B9209CA38BA366E9CE010E94B9209EA3AE
:1042F0008DA368E9CE010E94B92098A78FA36AE92F
:10430000CE010E94B9209AA789A76CE9CE010E942C
:10431000B9209CA78BA76EE9CE010E94B9209EA769
:104320008DA761EACE010E94BF208FA761EECE016A
:104330000E94B92099AB88AB63EECE010E94BF20EA
:104340008AAB64EECE010E94BF20182F65EECE012D
:104350000E94BF20F0E11F02900111248F70282BD2
:104360003CAB2BAB66EECE010E94BF20182F65EE52
:10437000CE010E94BF2090E119029001112490E02B
:1043800044E0959587954A95E1F7822B932B9EAB58
:104390008DAB67EECE010E94BF208FAB8DEE89AF53
:1043A0008AAD8F71806A8AAF88AD807C8F7788AF45
:1043B00040E064EFCE010E944A1A4AAD429546950C
:1043C000477062EFCE010E944A1A88AD482F4770AD
:1043D000E0E24E9FA0011124282F269526952695D0
:1043E0002770F4E02F9F90011124422B87FB882730
:1043F00080F9482B65EFCE010E944A1A89AD482FFB
:10440000477090E2499FA0011124282F26952695F8
:1044100026952770E4E02E9F90011124422B82956F
:10442000869586958370482B64EFCE010E944A1AC8
:1044300064E670E080E090E00E94C80881E0EBCE86
:1044400061E084850E944508F80182858B7F60E0E9
:1044500009F061E084850E941708F80185858F3F87
:1044600041F061E00E94450861E0F80185850E9405
:104470001708F80186858F3F09F4E7CE60E00E94B7
:104480004508E3CECF93DF938091941290919512DB
:10449000009711F00E94464986E090E00E94AA48E9
:1044A000EC0188E688838DED94E19A8389831B82F1
:1044B00080E290E09D838C83D0939512C0939412F8
:1044C0000E94531581E08B83CE01DF91CF910C9434
:1044D000B7192091EF143091F014C901079697FD98
:1044E000079623E0959587952A95E1F72091ED149D
:1044F0003091EE14829FA001839F500D929F500D2A
:10450000112470E060E080910815909109150C94D9
:10451000D4490E94CF49FB0101900020E9F731976F
:10452000AF01461B570BDC01ED91FC910280F3813A
:10453000E02D19948F929F92AF92BF92EF92FF92CB
:104540000F931F93CF93DF93CDB7DEB7A1970FB62D
:10455000F894DEBF0FBECDBF7C01FA01CB0119A2DA
:10456000223008F42AE08E010F5D1F4F822E912C1D
:10457000B12CA12CBF01A50194010E944445F90171
:10458000CA016A300CF5605DD8016E938D01232B52
:10459000242B252B79F790E080E0109721F0BD01C6
:1045A000C7010E948B22A1960FB6F894DEBF0FBE02
:1045B000CDBFDF91CF911F910F91FF90EF90BF90F2
:1045C000AF909F908F900895695CDECFCF93DF937B
:1045D000AB01BC012AE085EA93E10E949A22EC013A
:1045E00067EA72E085EA93E10E948B228C0F9D1F9F
:1045F000DF91CF910895CF92DF92EF92FF920F93C8
:104600001F93CF93DF9377FF21C06A017B01EC01F9
:10461000E881F9810190F081E02D6DE219958C011E
:1046200044275527BA014C195D096E097F092AE014
:10463000CE010E949A22800F911FDF91CF911F918E
:104640000F91FF90EF90DF90CF9008952AE0DF91D7
:10465000CF911F910F91FF90EF90DF90CF900C942E
:104660009A224F925F926F927F928F929F92AF9217
:10467000BF92CF92DF92EF92FF920F931F93CF934F
:104680006B017C01742EAC019B010E94E3466AEA37
:1046900072E0811126C046015701E894B7F82FEF68
:1046A0003FEF4FE75FE7C501B4010E94E346811188
:1046B0000CC02FEF3FEF4FE75FE7C501B4010E9449
:1046C000D5436EEA72E0181664F02FEF3FEF4FE724
:1046D0005FE4C701B6010E94DE461816ACF462EB37
:1046E00072E085EA93E1CF911F910F91FF90EF90D7
:1046F000DF90CF90BF90AF909F908F907F906F9002
:104700005F904F900C948B222FEF3FEF4FE75FECC1
:10471000C701B6010E94D54387FDE1CF20E030E01C
:10472000A901C701B6010E94D54310E000E087FF50
:104730000AC06DE285EA93E10E94A7098C01F7FAAD
:10474000F094F7F8F094C0E060E070E080E09FE360
:104750007C1641F020E030E040E251E40E94E24566
:10476000CF5FF6CFA70196010E9476452B013C0151
:104770000E945B464B015C012AE0BC01A40185EA72
:1047800093E10E949A227C01E00EF11ECC23D1F12C
:10479000C501B4010E94DA439B01AC01C301B2011F
:1047A0000E9475454B015C016EE285EA93E10E942F
:1047B000A709E80EF91EC15028F120E030E040E2E0
:1047C00051E4C501B4010E943B442B013C010E940D
:1047D0005B464B01B12CA12C2AE0B501A40185EA6E
:1047E00093E10E949A22E80EF91EC501B4010E94CD
:1047F000DA439B01AC01C301B2010E9475454B0134
:104800005C01D9CFC701CF911F910F91FF90EF901D
:10481000DF90CF90BF90AF909F908F907F906F90E0
:104820005F904F9008950F931F93CF93DF93EC0108
:10483000AB01770F660B770B0E94FB228C0167EAB6
:1048400072E0CE010E948B22800F911FDF91CF91E9
:104850001F910F9108950F931F93CF93DF93EC0156
:104860000E948B228C0167EA72E0CE010E948B22AB
:10487000800F911FDF91CF911F910F9108950C949C
:104880008B22CF92DF92EF92FF926B017C016CE55D
:1048900073E085EA93E10E943F24C701B6010E94BC
:1048A000E62261E086E10E94170860E087E10E944D
:1048B000170861E086E00E94450861E086E00E94FA
:1048C0001708C0926511D0926611E0926711F092BC
:1048D00068110E94FA086093691170936A118093BD
:1048E0006B1190936C1181E08093851164E973E002
:1048F00085EA93E1FF90EF90DF90CF900C942B240A
:1049000085ED8093BC008091E0129091E112A0911E
:10491000E212B091E3120796A11DB11D23E0B695F6
:10492000A795979587952A95D1F72091BC0024FDEE
:1049300003C01092DE1208954091E0125091E112EE
:104940006091E2127091E312452B462B472B69F3DD
:104950000097A105B10541F02AE22A95F1F700C0C0
:104960000197A109B109E1CF8091DF120C946A157A
:10497000CF92DF92EF92FF920F931F93CF93DF932B
:10498000EB017B0124E0E20EF11C8B016C01C61AE5
:10499000D70AC601800F911F0E94FC44F801819341
:1049A0008F01EE15FF05A9F7CE01DF91CF911F9181
:1049B0000F91FF90EF90DF90CF9008950F931F938A
:1049C000CF93DF938C01EB010E94FC448883C801E4
:1049D00001960E94FC448983CE01DF91CF911F9103
:1049E0000F910895FC0101900020E9F79F01FC015F
:1049F0002150310980E0E217F30719F091918927DE
:104A0000FACF1F928F938FEA93E09F938F937F93B8
:104A10006F930E94494A0F900F900F900F900F9044
:104A20000F900895EF92FF920F931F93CF93DF9310
:104A3000CDB7DEB7C350D1400FB6F894DEBF0FBE7E
:104A4000CDBFF82EE92E8E010F5F1E4FB8010E94D8
:104A5000F2241F930F93EF92FF9284EB93E09F93C6
:104A60008F9381E08F931F921A951F930F930E944B
:104A70000C4AB80188E093E10E942B2488E093E17E
:104A80000E940F0A6AE070E080E090E00E94C8088F
:104A90000FB6F894DEBF0FBECDBFCD5FDE4F0FB6B1
:104AA000F894DEBF0FBECDBFDF91CF911F910F9164
:104AB000FF90EF9008956CEB73E085EA93E10E941C
:104AC0002B2460E08CE10E94170860E08DE10E94D9
:104AD000170861E085E00E94450860E085E00E94DB
:104AE0001708109282118FED93E00E9412256DEE4F
:104AF00073E085EA93E10C942B2464E074E085EA8A
:104B000093E10E942B2460E08AE10E94170860E094
:104B10008BE10E94170861E084E00E94450860E094
:104B200084E00E941708109283118AE294E00E94A8
:104B3000122568E374E085EA93E10C942B246FE47A
:104B400074E085EA93E10E942B2460E088E10E94F2
:104B5000170860E089E10E94170861E087E00E9481
:104B6000450860E087E00E9417081092841185E7ED
:104B700094E00E94122563E874E085EA93E10C94C6
:104B80002B246AE974E085EA93E10E942B2460E01B
:104B900086E10E94170860E087E10E94170861E043
:104BA00086E00E94450860E086E00E9417081092A7
:104BB000851180EC94E00E9412256EEC74E085EA89
:104BC00093E10C942B24FF920F931F93CF93DF93C9
:104BD000EC01F62E08811981C8010E94FC44F816E8
:104BE00021F06F2DC8010E940445CE01DF91CF91C5
:104BF0001F910F91FF900895AF92BF92CF92DF92D5
:104C0000EF92FF920F931F93CF93DF931F921F9208
:104C1000CDB7DEB78B016B0124E0C20ED11C7B0146
:104C20005C01A61AB70AC5018E0D9F1D9A83898360
:104C3000F70161917F01CE0101960E94E325EC14FA
:104C4000FD0489F7C8010F900F90DF91CF911F915C
:104C50000F91FF90EF90DF90CF90BF90AF900895AD
:104C60001F920F920FB60F9211242F933F938F93A1
:104C70009F93AF93BF938091881290918912A091D6
:104C80008A12B0918B123091871223E0230F2D37B7
:104C900058F50196A11DB11D2093871280938812AB
:104CA00090938912A0938A12B0938B1280918C12E8
:104CB00090918D12A0918E12B0918F120196A11D2C
:104CC000B11D80938C1290938D12A0938E12B0938D
:104CD0008F12BF91AF919F918F913F912F910F9024
:104CE0000FBE0F901F90189526E8230F0296A11D66
:104CF000B11DD2CF1F920F920FB60F9211240BB697
:104D00000F922F933F934F935F936F937F938F9364
:104D10009F93AF93BF93EF93FF93E0910E02F091B7
:104D20000F021995FF91EF91BF91AF919F918F91D4
:104D30007F916F915F914F913F912F910F900BBE9B
:104D40000F900FBE0F901F9018951F920F920FB6E5
:104D50000F9211240BB60F922F933F934F935F93B3
:104D60006F937F938F939F93AF93BF93EF93FF9333
:104D7000E0910C02F0910D021995FF91EF91BF9116
:104D8000AF919F918F917F916F915F914F913F91E3
:104D90002F910F900BBE0F900FBE0F901F90189584
:104DA0001F920F920FB60F9211240BB60F922F93F2
:104DB0003F934F935F936F937F938F939F93AF93A3
:104DC000BF93EF93FF93E0910202F09103021995D4
:104DD000FF91EF91BF91AF919F918F917F916F91D3
:104DE0005F914F913F912F910F900BBE0F900FBE8F
:104DF0000F901F9018951F920F920FB60F921124CB
:104E00000BB60F922F933F934F935F936F937F93C4
:104E10008F939F93AF93BF93EF93FF93E091000223
:104E2000F09101021995FF91EF91BF91AF919F9180
:104E30008F917F916F915F914F913F912F910F9043
:104E40000BBE0F900FBE0F901F9018951F920F92E0
:104E50000FB60F9211240BB60F922F933F934F93DF
:104E60005F936F937F938F939F93AF93BF93EF93D2
:104E7000FF93E0910A02F0910B021995FF91EF91D7
:104E8000BF91AF919F918F917F916F915F914F9162
:104E90003F912F910F900BBE0F900FBE0F901F9060
:104EA00018951F920F920FB60F9211240BB60F9206
:104EB0002F933F934F935F936F937F938F939F9322
:104EC000AF93BF93EF93FF93E0910802F091090233
:104ED0001995FF91EF91BF91AF919F918F917F9124
:104EE0006F915F914F913F912F910F900BBE0F905B
:104EF0000FBE0F901F9018951F920F920FB60F9232
:104F000011240BB60F922F933F934F935F936F93A0
:104F10007F938F939F93AF93BF93EF93FF93E09112
:104F20000602F09107021995FF91EF91BF91AF91A1
:104F30009F918F917F916F915F914F913F912F91B1
:104F40000F900BBE0F900FBE0F901F9018951F92E1
:104F50000F920FB60F9211240BB60F922F933F931F
:104F60004F935F936F937F938F939F93AF93BF9371
:104F7000EF93FF93E0910402F09105021995FF91E0
:104F8000EF91BF91AF919F918F917F916F915F91C1
:104F90004F913F912F910F900BBE0F900FBE0F902E
:104FA0001F9018951F920F920FB60F9211240BB6F7
:104FB0000F922F933F934F935F936F937F938F93B2
:104FC0009F93AF93BF93EF93FF9388E093E10E9489
:104FD0008509FF91EF91BF91AF919F918F917F9143
:104FE0006F915F914F913F912F910F900BBE0F905A
:104FF0000FBE0F901F9018951F920F920FB60F9231
:1050000011240BB60F922F938F939F93EF93FF93DF
:10501000E0911813F09119138081E0911E13F09123
:105020001F1382FD1DC09081809121138F5F8F73AC
:1050300020912213821741F0E0912113F0E0E85F04
:10504000FC4E958F80932113FF91EF919F918F914B
:105050002F910F900BBE0F900FBE0F901F901895C1
:105060008081F2CF1F920F920FB60F9211240BB6D0
:105070000F922F933F934F935F936F937F938F93F1
:105080009F93AF93BF93EF93FF9385EA93E10E94C1
:105090008509FF91EF91BF91AF919F918F917F9182
:1050A0006F915F914F913F912F910F900BBE0F9099
:1050B0000FBE0F901F9018951F920F920FB60F9270
:1050C00011240BB60F922F938F939F93EF93FF931F
:1050D000E091B513F091B6138081E091BB13F0918C
:1050E000BC1382FD1DC090818091BE138F5F8F73B2
:1050F0002091BF13821741F0E091BE13F0E0EB5511
:10510000FC4E958F8093BE13FF91EF919F918F91ED
:105110002F910F900BBE0F900FBE0F901F90189500
:105120008081F2CF1F920F920FB60F9211240BB60F
:105130000F922F933F934F935F936F937F938F9330
:105140009F93AF93BF93EF93FF938091B900887FB4
:10515000803609F44DC008F040C0883209F4A9C077
:1051600028F5803109F49DC0C8F4882309F4FBC0F8
:10517000883009F496C0FF91EF91BF91AF919F9154
:105180008F917F916F915F914F913F912F910F90F0
:105190000BBE0F900FBE0F901F901895883109F429
:1051A00088C0803241F78093DC1214C0803409F447
:1051B0009DC040F48033B9F38833E9F68093DC1264
:1051C00085ECB0C0803509F485C0883509F496C0F7
:1051D000883489F60E948024CECF883909F48CC0A7
:1051E00038F5883729F050F4883611F0803719F6F1
:1051F00083E08093DE121092381157C0883809F48A
:105200007BC0803919F0803809F0B5CF8091381112
:10521000803208F071C0E091381181E08E0F8093E8
:1052200038118091BB00F0E0E85EFE4E80833DC007
:10523000803B39F0E0F4803A09F479C0883A09F00B
:105240009ACF84E08093DE121092171110921611FB
:10525000E0919212F091931219958091161181119B
:105260000FC081E0809316111092F61009C0803CA7
:1052700009F4A6CF883C09F4A3CF883B09F07BCF83
:10528000E091171181E08E0F80931711F0E0EA5042
:10529000FF4E80818093BB00909117118091161171
:1052A00029C08091B9128093BB0085EC8093BC002B
:1052B00062CF9091DB128091DA12981758F5E09145
:1052C000DB1281E08E0F8093DB12F0E0E654FD4E9E
:1052D0008081E9CFE091DB1281E08E0F8093DB12B9
:1052E0008091BB00F0E0E654FD4E80839091DB128C
:1052F0008091DA129817C8F285E8D8CFE091DB12D6
:1053000081E08E0F8093DB128091BB00F0E0E654C9
:10531000FD4E80838091DD1281115CCF81E080930E
:10532000B81284EA8093BC001092DE1224CF85EC80
:105330008093BC001092DE1280913811803230F4DC
:10534000E0913811F0E0E85EFE4E10826091381175
:1053500070E0E0919012F091911288E191E119953D
:105360001092381108CF1092DC1234CFCF92DF9216
:10537000EF92FF920F931F93E82FF92F05C0015072
:1053800011092109310961F1908196239417B9F32C
:1053900005C0015011092109310911F190819623AD
:1053A0009413F7CFC12CD12CE12CF12C0AC08FEF34
:1053B000C81AD80AE80AF80A0C151D052E053F057B
:1053C00079F080818623841791F36C2D7D2D8E2DAD
:1053D0009F2D1F910F91FF90EF90DF90CF90089538
:1053E00060E070E080E090E01F910F91FF90EF90FF
:1053F000DF90CF9008950F931F93CF93DF93EC012D
:105400000A811B810115110559F0D80112968D9161
:105410009C91009711F00E944649C8010E9446499C
:1054200088819981009711F00E9446498C819D8165
:10543000009739F0DC01ED91FC910280F381E02DC1
:1054400019958E819F81009739F0DC01ED91FC91D7
:105450000280F381E02D199588859985009759F090
:10546000DC01ED91FC910280F381E02DDF91CF9181
:105470001F910F911994DF91CF911F910F91089572
:1054800087E694E10E94FB2982EA94E10E94FB29CD
:105490008FE792E09093EA148093E91480910815C5
:1054A00090910915009711F00C9446490895CF92F8
:1054B000DF92EF92FF926B017C0166EB72E085EA6E
:1054C00093E10E943F24C701B6010E94E62261E0F9
:1054D0008AE10E94170860E08BE10E94170861E0F2
:1054E00084E00E94450861E084E00E941708C092B1
:1054F0005511D0925611E0925711F09258110E9416
:10550000FA086093591170935A1180935B1190932C
:105510005C1181E0809383116EEE72E085EA93E185
:10552000FF90EF90DF90CF900C942B24CF92DF92DE
:10553000EF92FF926B017C0169E073E085EA93E1F1
:105540000E943F24C701B6010E94E62261E088E183
:105550000E94170860E089E10E94170861E087E077
:105560000E94450861E087E00E941708C0925D1123
:10557000D0925E11E0925F11F09260110E94FA08E1
:105580006093611170936211809363119093641121
:1055900081E08093841161E473E085EA93E1FF90F8
:1055A000EF90DF90CF900C942B24AF92BF92CF92CC
:1055B000DF92EF92FF920F931F93CF93DF931F928F
:1055C0001F92CDB7DEB78B016B0124E0C20ED11C58
:1055D0007B015C01A61AB70AC5018E0D9F1D9A8337
:1055E0008983F70161917F01CE0101960E94E32535
:1055F000EC14FD0489F7C8010F900F90DF91CF9153
:105600001F910F91FF90EF90DF90CF90BF90AF90E0
:105610000895EF92FF920F931F93CF93DF931F9202
:105620001F92CDB7DEB78C017B019A838983FB0182
:105630006081CE0101960E94E3250F5F1F4F1A8300
:105640000983F7016181CE0101960E94E325C7011C
:105650000F900F90DF91CF911F910F91FF90EF90DE
:105660000895CF93DF93E8E0F3E11382128248EECE
:1056700053E060E070E044835583668377838BE575
:1056800092E0918380832DEC30E0358724872CECE9
:1056900030E03787268728EC30E0318B208B29ECEF
:1056A00030E0338B228B2AEC30E0358B248B2EECD0
:1056B00030E0378B268B118E128E138E148EE5EA16
:1056C000F3E1138212824483558366837783918347
:1056D000808385EC90E09587848784EC90E09787C1
:1056E000868780EC90E0918B808B81EC90E0938BAF
:1056F000828B82EC90E0958B848B86EC90E0978B8C
:10570000868B118E128E138E148EADEDB4E113962E
:105710001C921E92129714964D935D936D937C93F9
:1057200017978DE692E011969C938E93E9EEF4E143
:105730001382128220E830E03583248380E490E0F5
:10574000978386833187208793878287168A158679
:10575000148617861686D1E0D58BD48B8FEF9FEFFA
:10576000938B828B918B808BD78B108E128E118EA8
:105770008FE792E091838083148E138EB68FA58F6E
:1057800010A2178ECFEFC4A3C5A3C6A3C7A3C0A7FB
:1057900080E89AE1A6E0B0E085AB96ABA7ABB0AFEE
:1057A00080EA96E8A1E0B0E081AF92AFA3AFB4AFDA
:1057B00080E586AF17AEE2EAF4E11182108213822F
:1057C0001282158214821782168211861086138A1D
:1057D000148A158A168AE7E6F4E111821082138290
:1057E0001282158214821782168211861086138AFD
:1057F000148A158A168A60E081E20E944508E8E76B
:10580000FEE0E491A9E5B4E1EC93E2E3FEE0E4918B
:10581000F0E0EE0FFF1FE950F24F85919491129640
:105820009C938E9311971B961C921B971D961C920E
:105830001D971C961C921C971A961C921A971996E3
:105840001C92199718961C92189717961C921797E6
:1058500016961C92169715961C92159714961C92E4
:10586000149713961C921397E2E4F4E117821086C2
:10587000108289E08383D483D583D6831182168AEC
:10588000158AC38B148AB287A187DF91CF910895BF
:10589000CF93DF93CDB7DEB7C254D1400FB6F894A3
:1058A000DEBF0FBECDBF789484B5826084BD84B561
:1058B000816084BD85B5826085BD85B5816085BD0B
:1058C00080916E00816080936E00109281008091C3
:1058D000810082608093810080918100816080934B
:1058E0008100809180008160809380008091B10070
:1058F00084608093B1008091B00081608093B0009B
:1059000080919100826080939100809191008160EC
:1059100080939100809190008160809390008091AD
:10592000A10082608093A1008091A100816080939A
:10593000A1008091A00081608093A000809121014E
:1059400082608093210180912101816080932101F7
:105950008091200181608093200180917A00846091
:1059600080937A0080917A00826080937A0080919F
:105970007A00816080937A0080917A0080688093B9
:105980007A001092C10061E086E00E94450861E063
:1059900086E10E94450861E087E10E94450861E0D8
:1059A00087E00E94450861E088E10E94450861E0C7
:1059B00089E10E94450861E084E00E94450861E0B9
:1059C0008AE10E94450861E08BE10E94450861E0A0
:1059D00085E00E94450861E08CE10E94450861E095
:1059E0008DE10E94450861E08EE10E94450860E07B
:1059F00082E00E94450862E080E20E94450880EE55
:105A000099E1909301028093000280916A008C7F5B
:105A1000816080936A00EC9AE091B513F091B6131F
:105A200022E02083E091B113F091B2131082E09153
:105A3000B313F091B41380E180831092BD13E09111
:105A4000B913F091BA1396E09083E091B713F091F7
:105A5000B813808180618083E091B713F091B8130F
:105A6000808188608083E091B713F091B8138081C2
:105A700080688083E091B713F091B81380818F7DA7
:105A80008083E0911813F09119132083E09114138F
:105A9000F09115131082E0911613F09117138FEC0B
:105AA000808310922013E0911C13F0911D139083BA
:105AB000E0911A13F0911B13808180618083E09143
:105AC0001A13F0911B13808188608083E0911A1370
:105AD000F0911B13808180688083E0911A13F0910C
